:020000040000FA
:10000000FFFFFF00FFFFFF00FFFFFF00FFFFFF00FC
:10001000FFFFFF00FFFFFF00FFFFFF00FFFFFF00EC
:10002000FFFFFF00FFFFFF00FFFFFF00FFFFFF00DC
:10003000FFFFFF00FFFFFF00FFFFFF00FFFFFF00CC
:020000040005F5
:102000000FA021000EFF2D000E018800000000002F
:102010000C00070000412A00210020000F000700EB
:10202000000020000000E00002003200000002007A
:102030000000000086A20200020000000040DA005A
:102040000000FE00E00620000000E0000200320078
:10205000502020009001880000000600A1028800A6
:10206000800078000000EB001A003700E28040009A
:1020700054A0B4009101BA00E280400054A0B40022
:102080009102BA00E280400054A0B4000002EB00CC
:10209000472BDE00F507B200A6018800602CE100A6
:1020A00008003A000049EB000201E8000200390094
:1020B0003420EC0002F0A0008301E900F9FF3E00AB
:1020C000040037006128E100010032000082EB00CB
:1020D000040007001101BA000200E000E3FF3A002B
:1020E0000000060004D0A300E20F49001C003900E4
:1020F000810278003549BA000201E8000200390087
:102100003420EC0002F0A0008301E9000F0032004F
:102110002549BA000201E800020039003420EC0031
:1021200002F0A0008301E900080032000400E00092
:102130000600320015C9BA000201E80002003900A9
:102140003420EC0002F0A0008301E9008180E80067
:1021500054A0B4000300E000E2FF3A0000000600D3
:102160009102BA00055978008301E900F7FF3200B7
:10217000C82ADE00055978008301E900F3FF320028
:102180000400E000F1FF320011D9BA00EEFF370081
:102190000040DA000000FE00000278008001EB0041
:1021A00002003700315A78008301E800828F510025
:1021B000FCFF3A0000000600010178000000E90081
:1021C0008080EB00E50F500005003E00000040005D
:1021D000219E210001004000900078000208780054
:1021E0000100780000000600000178000000E9000E
:1021F000E50F500010003E0000004000219E21002D
:1022000001004000900078000100E00002003A0068
:102210001000200014000700E18F4000060032008B
:102220000000EB00E18F5000040032000200780053
:1022300001000100000005000080EB000000060026
:1022400010002000E8FF0700100020000600070033
:102250000000FA00CFB8970068815700140007000B
:102260000080FA0000000600000478000200070069
:1022700008007800C4030700881F7800A0CF800002
:102280000000E0000100320000000100E89B210096
:1022900008007800BA0207006C044400209E210068
:1022A000800F5400FAFF3A004F0478000000060047
:1022B000FE874700889FBE008A9FBE008C9FBE009D
:1022C0008E1F7800F0B79F000107780082BF9F0043
:1022D0000000EB00A0B79F009E0237008006EB00D5
:1022E00050C2B30080CF5000090032000100FB0053
:1022F000FFB09700DA020700E10F400095023200BC
:10230000AFB097008100E800A1B79F0091023700AD
:102310009E407800D0C2B30080CF50000C00320045
:1023200007003C006D40500080CF50000A00320092
:102330006B40400080CF50000E003A00080037008C
:1023400000C3B30080CF50000A003A0006003700F7
:102350000D30A000050037000D00A000030037007D
:102360000D10A000010037000D20A0000E07E800AE
:10237000E7FF37000D18A300010032000D00A10097
:102380000D38A300010032000D20A1000100FB0068
:1023900002FD2F0002004000E90F50000D003E003A
:1023A0008001EB00C3B79F004FB29700EA20B8004E
:1023B0009E00FB000100400002004000C0B79F00EB
:1023C0005E00FB0002004000E90F50000B003E00E1
:1023D000F5FF37008002EB00C5B79F00A0C2B30035
:1023E00080CF500005003A000FBE97004C007800E7
:1023F0008CBF9F00C0B79F000E07E8008000EB0075
:10240000B1B79F00E0C2B3009E4F100018003A0021
:102410000DE0A0008E00E80064405000914F1000D5
:1024200002003200010778000C0037008FB99700D6
:102430004302780083BF9F00B4B79F000E87E80077
:102440000B003700BFB29700EA28B8000100400037
:1024500002004000B0B79F000E07E8009E00FB009E
:1024600002FD2F0002804000E90F5000F5FF36000A
:10247000BE407800E1D79F00C0C6B30080CF5000B7
:10248000220032000F003C006940500080CF500015
:102490007700320004003C000104E0003102320009
:1024A0006B4050000F00370040C6B30080CF500093
:1024B000930032006540400080CF50008B003A000E
:1024C0008F00370030C7B30080CF50001A003200B1
:1024D00007003C006440500080CF500011003200E3
:1024E0000040E80080CF500080003A000F00370025
:1024F00050C7B30080CF50008000320063404000DE
:1025000080CF500079003A00090037000000280011
:102510000D48A30001003A000001200080867600EB
:10252000D3FF37000D60A000750037000D50A000EC
:102530000D70A000720037000FBE97004C007800AD
:102540008CBF9F00000478000000E00001003A000A
:10255000289921008004EB00010037008104E80085
:1025600089007800088044001004E000FBFF3A0076
:102570003FB097000000E00003003200890F5000D8
:1025800001003100800478008000EB00E1AF9F0083
:102590004FB19700890F5100020036000900510029
:1025A000E0AF9F004368DE00E10660001B003A00D8
:1025B0000D06780009003700FFB0970000022000E8
:1025C00027020700E10F400003003200AFB197007F
:1025D0008301E800A3B79F000C06E8006FAA9700EC
:1025E000840F5600F4FF3A008082EB00E5AF9F00B5
:1025F0000A003700880078003100FB0001047800F1
:10260000FFB0970016020700E10F40000300320000
:102610002FB697000C06E800ACB79F000900E90050
:1026200080047800E10F4000F2FF3A000006EB0062
:102630000D00E0000A003A00C6013700FFB0970025
:102640000002200006020700E10F400003003200F4
:102650002FB097000000E800A0B79F000C06E8002C
:10266000EFA89700810F5600F4FF3A00B901370038
:102670000FB997004200780082BF9F00CF80DE0034
:1026800001017800820178000205BE000004BE004E
:102690000203BE000002BE004822DE00482EDD001C
:1026A00004027600E4D79F000D48A3000A00320020
:1026B0000404E00008003200E14F4200060032004E
:1026C00071FD2F00018047000448780018409800F1
:1026D0002900200002003700F0D79F0019002000D9
:1026E00072FD2F0002844700A1FF370063FD2F0019
:1026F00003844700190020009DFF37000D0CB30034
:102700000D007800000CB20028003A000D00E00037
:1027100005003D000FBA97004405BE004404BE000A
:1027200084BF9F00140037000D48A3000B00320047
:102730008FBA97004500BE0085BF9F004F89DE001D
:10274000CF91DE000002BE00020378008203780011
:102750000605BE000404BE00070037000FBE970048
:102760004C0078008CBF9F0000047800CFC4DE00CE
:10277000090578008A057800E00F5400E08F5C00BE
:10278000E00F5D00E08F5D001F003D003D00B300E5
:102790006000B8006011B800080450008984580037
:1027A0000A0559008B855900170037000D00E0001D
:1027B00005003D000FB897004005BE004004BE0074
:1027C00080BF9F00100037000D48A30007003200B3
:1027D0000FBA97004400BE0084BF9F006011B8008C
:1027E0000205BE000004BE00070037008FBA970044
:1027F0004500780085BF9F00000478000900200094
:102800000A0020000B0020003FB697000C00E000FB
:1028100007003A00E00F5400E08F5C00E00F5D001D
:10282000E08F5D0002003A0010002000B0B79F006A
:102830008D007800010CB200E1B79F000004200079
:10284000808F50003000320003003C000100E000A7
:102850000800320040003700000820006FB19700E8
:10286000800F510014003200000C2000800F510036
:1028700039003A0014C0B300258F21000B00370047
:102880000400FB004300DD00050040005001BE00D5
:102890004000BE000040E10001C8E10002D0E100BC
:1028A00003D8E1002B0039000442E800F44F520045
:1028B000F3FF3A002700370000012000010020004C
:1028C0006011B80014C0B3000040E10001C8E1008D
:1028D00002D0E10003D8E1001E00390045002000CD
:1028E0000000D0008180D2000281D2008381D2001A
:1028F0008502E900FAFF3A000442E800F04F520076
:10290000F1FF3A0013003700800020000100200092
:102910006011B80014C0B3000040E10001C8E1003C
:1029200002D0E10003D8E1000A0039003C00200099
:102930000000D0008180D2000281D2008381D200C9
:102940000C06E900FAFF3A000442E800F54F520095
:10295000F1FF3A00E4D79F00EFD097000100FB00A1
:102960003FB19700820F500002003D00E2D79F0068
:1029700004003700BFB19700808F510001003D0077
:10298000B0B79F004FB297000400E000040032008F
:1029900063806600020032000402E900C4B79F00B1
:1029A0000DE8A3000B003200CFB297003FB69700AE
:1029B0008C8F520003003C000000EB00C0B79F006A
:1029C00004003700CFB097003FB1970082805000DD
:1029D000C1B79F00EFD197000300FB000002EB009E
:1029E000D4AF9F00CFB29700808F52000200340016
:1029F00000805200D0AF9F000D28A30036003200A7
:102A0000E18066000D18A3000C003200D002200007
:102A10000100E00001003A000080E900FFB09700EB
:102A20000F010700E10F40000E0032002FB69700A3
:102A30000C06E800ACB79F000A0037000100E00078
:102A400008003200FFB097000002200004010700D8
:102A5000E10F4000030032002FB097000000E800B3
:102A6000A0B79F00DFA897000100E0000F00320030
:102A70000006EB00FFB0970000032000F8000700FD
:102A8000E10F4000030032002FB197000201E8007F
:102A9000A2B79F000C06E800DFA99700830F56003D
:102AA000F4FF3A000002EB00D4AF9F00BFB29700E2
:102AB0004328DD00A18E21000100400090B79F0057
:102AC0004228DD006400500080B79F00E32EB8006C
:102AD000FCAF9F00840037005FA897000000E00073
:102AE00011003200688066000F003A00000678008E
:102AF000FFB0970000022000D9000700E10F40005E
:102B000003003200AFB097008100E800A1B79F003A
:102B10000C06E8005FA99700820F5600F4FF3A0008
:102B20008001EB00D3AF9F00E18066000D18A30089
:102B30000C003200D00220000100E00001003A0049
:102B40000080E900FFB09700C5000700E10F4000DA
:102B5000D6FF32002FB297000402E800A4B79F000E
:102B6000D2FF37000100E000D0FF3200FFB0970035
:102B700000022000BA000700E10F4000CBFF320046
:102B8000AFB297008502E800A5B79F00C7FF3700E6
:102B900000042000EFB09700808F50003200320018
:102BA00003003C000100E000080032003F00370055
:102BB000000820006FB19700800F51001100320013
:102BC000000C2000800F510038003A009FB19700A0
:102BD0003302BE002303BE000800BE000A01BE008F
:102BE00085020700A4002000050020006033B80023
:102BF0008802070004C3B30004424000E4D79F00EA
:102C00002A00370095992100D5B79F000D58A300E1
:102C100002003A00A09A2100D0B79F0014002000C3
:102C2000050020006033B8008FB097008100E900F4
:102C3000050033000402D0008582D2000683D20052
:102C40008783D200F9FF37000800BE000A01BE00EA
:102C5000690207006F0060005FB19700000041004B
:102C600010407800100037001400200005002000FC
:102C70006033B8008C0178008301E900050033005F
:102C80000402D0008582D2000683D2008783D2005E
:102C9000F9FF37000800BE000A01BE005602070017
:102CA000674060000043B000E0D79F006FD29700FC
:102CB0000400FB00FFB0970069000700E10F40002F
:102CC00003003200AFB297008502E800A5B79F006D
:102CD0001FB097006800500090B79F008FB097001A
:102CE000E480500081B79F0063065600D0FF2F009C
:102CF0003FB197008010B8007FAA97000000420003
:102D000063005000800F5600A1FF3A000D38A30069
:102D100010003200DFAA97000500E0000D0034002B
:102D20000006EB00FFB09700000220004C000700F7
:102D3000E10F4000030032002FB097000000E800D0
:102D4000A0B79F000C06E800DFA89700810F56008F
:102D5000F4FF3A00BE407800E1D79F000104E00094
:102D60005EFD3A002FB097004F0778004F06BE0077
:102D70004F05BE004F04BE00EF01B1000000060089
:102D8000889FBE008A1F7800000478003000900001
:102D90006300600024003200080078008D00070006
:102DA0003805900080EF2F00000065003004980087
:102DB000280090000000E00004003200E8046500F4
:102DC00002003A007F0007002904980048009000A4
:102DD000F5000700E10F400013003200B80090003A
:102DE0000102B20010003A000AC8A3001800320025
:102DF000B0CF80000000E000150032000001780034
:102E000081047800012A200012289000880F5000C9
:102E1000070032004205B0004905B000818F540020
:102E20000B003200F8FF37000080EB00090037008C
:102E3000020078001B010700B0CF800009004000AD
:102E40008000EB0011289800010078000100370095
:102E50000000EB004F0578004F04BE0000000600A4
:102E6000889FBE000001780001047800B100900046
:102E70000118A300400032000198A30003003A00AB
:102E8000180090000000E0003B003A000190A00014
:102E90003104980082047800F90FB2001800900005
:102EA0000000E00002003A0028009000000C7800CA
:102EB000EA8F540006003A00380090000078A30022
:102EC00003003A0088007800D0002000E4FF0700EB
:102ED000180290006121B90058009000E8009000AD
:102EE000800F5100818F59000B0032000400E80070
:102EF000100498001800780009587800000C780039
:102F000011C0B300209F210001487800EA8F5400CF
:102F10000600320019003700880078000940780068
:102F20005600070080047800140037003800900035
:102F30000088A3001100320018019000A800900042
:102F400048009000A100070098009000810F5000F9
:102F500004003200380090000003B30030049800F1
:102F60008084EB000000EB00100498002800900023
:102F7000000C7800010037008084EB000900780025
:102F80004F04BE0000000600C1CF80000100E00039
:102F90000300320011007800C0CF88000300370022
:102FA00020002000C800070080007800E18F40006A
:102FB00002003A00906E2600D0CF88000100780011
:102FC00000000600C1CF800001087800C0CF880053
:102FD00000000600881F7800000478003000900090
:102FE0000008A30007003200800078000120B20032
:102FF00004003A0011049800A8009000010C780029
:10300000170037000018A300190032000098A30031
:1030100017003200A80090000100E0001400320008
:10302000180190000200E0001100320048009000FA
:103030006600070098009000810F500003003200E6
:10304000380090000003B300300498000000EB004B
:103050001004980028009000000C780038009000C0
:103060000058A300020032000080EB00010037008E
:103070000000EB004F047800000006000200FA0098
:10308000889FBE00A0FF9F0001047800B10090005F
:10309000810478000904B200020032000000FB0045
:1030A000360037000118A30005003A000103B30001
:1030B00031049800190498000080EB002F003700BD
:1030C000580090000000E00006003A004800900020
:1030D00012002000E68057003C0007001904980009
:1030E00024003700280090000000E00008003A00AB
:1030F000E09E210020049800000C780020002000B1
:1031000050049800100498000130A0003104980089
:1031100018019000A8009000480090002B000700C4
:1031200028009000000C78000080EB00100498004C
:1031300018007800AFF8970001587800000C78006C
:103140002FF89700EA4F50000A003A00380090002C
:103150000088A3000700320018019000A80090002A
:10316000480090001900070019049800A80090007A
:10317000010C7800AFF897000100FB004F04BE007F
:103180000080FA00000006002002E20004003D007A
:103190002342AB00020032002302AB00FEFF3200EC
:1031A0000040DA00FEFF37000A00FA00110020009C
:1031B000B1BF9F00C0BF9F006A80570000C0DA0007
:1031C0004FB897000080FA00000006000A00FA00DD
:1031D00080017800E20F500027003E00E0CF800021
:1031E000E10F500008003200802320000000E000C2
:1031F0000500320004232000252320004623200060
:1032000080017800040037000422200025222000DD
:103210004622200083222000144090000004E00099
:10322000040035008009EB00144090000074A000F9
:1032300010429800154090000028A30003003A00B7
:10324000154090000024A000904298008001EB00FF
:1032500006003700154090000008A300FDFF320073
:103260003100FB00000B78008301E800828F5100E1
:10327000F8FF3A000800370030002000B0BF9F0080
:10328000C3BF9F00D1BF9F00E2BF9F006A8057006D
:1032900000C0DA006FB99700020078000080FA00E1
:1032A000000006000A00FA0051002000B1BF9F0094
:1032B000C0BF9F006A80570000C0DA005FB8970067
:1032C0000080FA0000000600889FBE00800478009D
:1032D000F0CF80000000E00003003A00100007007B
:1032E0000000E0000A003500F0CF80000900E00097
:1032F00002003A000004780006003700000478005D
:1033000009004000060007000000E00001003D0049
:103310000084EB00080078004F04BE0000000600A7
:10332000800078000000E00004003A000000200067
:10333000F0CF880001017800060037000081EB0023
:1033400000002000808F500002003E00F1CF880076
:103350000001EB000200780000000600881F7800E2
:10336000000478005001BE004000BE000400400090
:10337000858048000601490087814900009CBE0005
:103380000294BE000400E1000588E1000690E1001F
:103390000798E10002003100680044001008E800CE
:1033A0004F04780000000600F4874700889FBE00A5
:1033B0008A9FBE008C9FBE008E1F78000205BE0053
:1033C0000004BE00D4B79F00E5B79F00F6B79F008A
:1033D00087BF9F000000EB00C0B79F00B0B79F0001
:1033E000A0B79F0090B79F0080B79F000D042000FA
:1033F000BFB097004FB09700000140000000E00010
:103400000F003D004F08DE0000007100C0B79F00B4
:103410004D00070001003D00120020005000070091
:1034200001003D0012002000550007006100070068
:10343000660007000F004000C8FF070022003700A9
:103440004F08DE0000067100CCB79F003E00070069
:1034500001003D00120020004100070001003D0076
:103460001200200046000700520007000FB297002C
:103470009FB297002FB39700BFB397005900070082
:103480000000520081805A0002015B0083815B00D2
:1034900080B79F0091B79F00A2B79F00B3B79F006E
:1034A0000007EB004F0007000020E10001A8E10049
:1034B00002B0E10003B8E100010031001E0020006D
:1034C0000E005600C0B79F004FB297000400E00006
:1034D0000700350010002000010020006011B80036
:1034E00008047000898470000A0571008B857100E2
:1034F0008D06E900BEFF3A000400E00003003D0035
:10350000320007000F00400094FF07004FA897000B
:103510000000E00004003A000FB497009FB4970049
:103520002FB59700BFB597000800BE000A01BE0086
:103530004F0778004F06BE004F05BE004F04BE0087
:103540004F01B100000006000180400090B79F00CD
:103550000001EB008FB097000100E00000000600C2
:103560000200700090B79F000180400080B79F006C
:103570000001EB00FFA897000100E000000006003A
:103580000200700080B79F00018040006FAA970082
:10359000CF20DE0001007000F0AF9F000402420067
:1035A0000800BE000A01BE004F18DE0000027200D3
:1035B00000000600E4AF9F000804440089844C002A
:1035C0000A054D008B854D00000006003FB29700B4
:1035D000CFB297005FB39700EFB3970000FE2F00C4
:1035E000000006003FB09700CFB097005FB1970092
:1035F000EFB1970000000600881F78001800200037
:10360000881F780068FF07008F87E9004F04780063
:1036100000000600801FEB0063FF07008F87E900B2
:1036200000000600889FBE008A9FBE008C1F7800A5
:103630000205BE000004BE00E00F5000E08F5800FD
:10364000E00F5900E08F59000C003D006000B80009
:103650006011B80008045000898458000A05590018
:103660008B8559001C0020001F00070008003D004A
:10367000180007000006EB00050037000006EB000D
:103680001900070002003D000F0007001C00200089
:103690000800BE000A01BE00D7FF07000203BE00FB
:1036A0000002BE000C00E00001003200060007002E
:1036B0000400BE000601BE004F0678004F05BE00A4
:1036C0004F04BE00000006006000B8006011B800A2
:1036D000000037000402500085825800060359009C
:1036E0008783590000000600E00F5200E08F5A0067
:1036F000E00F5B00E08F5B0000000600889FBE00CB
:103700008A9FBE008C1F78000205BE000004BE0028
:10371000E00F5000E08F5800E00F5900E08F590093
:103720000A003D006000B8006011B80008045000B5
:10373000898458000A0559008B8559001C00200017
:103740001800070007003D00050037000006EB00E9
:103750001400070003003D006000B8006011B800CD
:10376000150007000800BE000A01BE00A9FF0700FF
:103770000203BE000002BE000C00E00003003200A5
:103780006000B8006011B8000B0007000400BE0024
:103790000601BE004F0678004F05BE004F04BE0074
:1037A00000000600E00F5200E08F5A00E00F5B00BF
:1037B000E08F5B0000000600040250008582580084
:1037C000060359008783590000000600000000002E
:1037D00021100000422000006330000084400000FF
:1037E000A5500000C6600000E770000008810000DE
:1037F000299100004AA100006BB100008CC10000BB
:10380000ADD10000CEE10000EFF1000002000000A9
:1038100052650000737500006C7400003D3D0000AF
:1038200030000000536F00007572000063650000F7
:1038300020460000696C0000657300002F46000000
:10384000726100006D650000576F0000726B000030
:103850002F460000726100006D650000776F000068
:10386000726B00002E63000000250000733A000018
:103870002569000020250000732000002D2D000088
:10388000206100007373000065720000746900001D
:103890006F6E000020660000616900006C6500002A
:1038A000640A00000000000070C1B30020F0B700FF
:1038B00060C02900801F78001040780021F0B70018
:1038C0004F0078001040900022F0B7003000200038
:1038D000F080880000000600889FBE008A9FBE001E
:1038E0008C9FBE000004780061035100E083590002
:1038F0008001EB00E10F4300E08F4B00210032001C
:103900000602BE006CBE29008605EA000505EA0035
:10391000860478008086EB004C18DE003881FB00BE
:10392000C410DE0001006800000040000C004000F0
:10393000C418DD00908068004C08DE0002006800BA
:103940006F006000000040000C004000C408DD0073
:103950009081680061025200E0825A000D48B80070
:10396000018145008A0041000000430081804B0036
:1039700061005000E0805800840F5000858F58008F
:10398000E5FF3A00030078004F06BE004F05BE0079
:103990004F04BE0000000600889FBE008A9FBE0044
:1039A0008C9FBE000004BE00E48F50001B00360058
:1039B0006066B8000C0444001840780006F0B700B8
:1039C000384090000CF0B700E40244007580880095
:1039D00064002100144278000480FB00E5014000EF
:1039E000611EB9008C8454000300E0000F00320017
:1039F0008000EB0001417800088040001041410048
:103A00008100E800838F5000FBFF39000204E000D2
:103A100006003200E48F5400E6FF3E004F06BE0071
:103A20004F05BE004F04BE00000006000CD0BF00D2
:103A3000E24F500039003200E44F50005000320095
:103A40000004E00043003A000BF0B7000AF0B700B2
:103A50001840900009F0B7002840900008F0B70027
:103A6000B0808000C1808000428080005380800050
:103A7000020040008380480092808000A380800084
:103A80000001410081814900428088005380880004
:103A90000404E000DFFF320040808000518080009D
:103AA0008105D1000085D3000000240001F82F001B
:103AB0000A0040008B804800F3FF2300830F500072
:103AC000E08F5800070036000000200081F02F0032
:103AD0000A0040008B804800F20F5000E08F580031
:103AE00033003E0040808000518080006400400030
:103AF000E08048004080880051808800400020001D
:103B00000E30B400E34F52001900360064405200FA
:103B100006F0B70000427800DDFF37001570EF00B7
:103B200070808000801F78001040780014F0B7008B
:103B30004F0078001040900013F0B7001270EF00B3
:103B40001630EF001830EF00E48F540099FF3E006C
:103B5000B2FF37001230EF001430EF001630EF00E4
:103B60001830EF00E48F540092FF3E00ABFF3700A7
:103B70000670EF00E48F54008EFF3E00A7FF370071
:103B80001540780019F0B700708080001040900058
:103B900018F0B7001770EF001670EF001230EF004A
:103BA0001430EF00E48F540082FF3E009BFF37008B
:103BB00010002700D1FF2F000A0040008B80480032
:103BC00002C02100820F5000E08F5800C5FF360070
:103BD000E34F520011003E0002B0EF0004B0EF00CE
:103BE0000481FB007180800020002100CC90020045
:103BF0000200000012808000238080000A00BE00C6
:103C000032A50200020000000000E00009003A00B6
:103C10006400210014427800B2FF370070808000F9
:103C20002300210003000900B05978004000B100D2
:103C3000F0FF370080C02900801F7800A11E2000FF
:103C4000811F780022C12900821F780053C32900F8
:103C5000831F7800609D210028910200020000006F
:103C60002091020002000000A14021009140780054
:103C70000100780020F0B7001E30EF0050C3B30001
:103C800080CF5000130032000600360030C8B30069
:103C900080CF500019003200F4CF400014003200F1
:103CA00000000600F7CF5000FDFF3A0060C0290079
:103CB000801F78001040780021F0B7004F00780096
:103CC0001040900022F0B70030002000F080880003
:103CD000000006009CA50200020000000000E000B9
:103CE0000D003A0010002000F0808800000006005F
:103CF00010002000008088000000060041A0800025
:103D0000E3805000B040210023FF07001000200096
:103D1000F08088000000060080C02900801F780025
:103D2000F00B2000801F780020C12900801F780040
:103D300050C32900801F7800609D21002891020057
:103D40000200000020910200020000001C10E200AE
:103D500001003A0000000600C3FF07001C30EF001E
:103D600000000600E6874700889FBE008A9FBE00CD
:103D70008C9FBE008E1F78000203BE000004BE00B0
:103D80008006EB00E00F5100E08F590007003A0079
:103D90000D0078004F0778004F06BE004F05BE00AB
:103DA0004F04BE006F00B100000006006EBE290087
:103DB0000980FB00A00288001880BA0080BF9F0025
:103DC0009800BA00F1B79F000602BE00F2815700CA
:103DD0000606EA008705EA00060578004C68DE0062
:103DE0001381FB00C410DE000100680000004000E9
:103DF0000E004000C468DD00908068004C08DE00C2
:103E0000020068006F006000000040000E004000EB
:103E1000C408DD009086680061025200E0825A000A
:103E20000081EB000250B800010146008B00410008
:103E30000600400087804800800F5200818F5A00A2
:103E4000040032008301E8006E805700808F51002B
:103E5000E2FF3A0062044400E0844C00E00F5200AC
:103E6000E08F5A00CAFF32000403BE000980FB0045
:103E7000A00288001880BA0080BF9F009800BA0096
:103E8000F1B79F000602BE00F28157000606EA0065
:103E90008705EA0006057800D0FF37000080800023
:103EA00000000600EA874700889FBE008A9FBE0088
:103EB0008C9FBE008E1F7800000478000100E00097
:103EC000250034001C10E20023003A00DA80800054
:103ED0000001EB00E2B79F00820478008100E90056
:103EE00081BF9F0041A08000703E2000808F500065
:103EF000010036000834EF0018417800E44F51000B
:103F00006F003200F04F510071003200E14F51005C
:103F10001700320041A08000A04021000080400036
:103F2000024878008100E80041A088000005EB000D
:103F30000804E8008FB99700838F540056003200C0
:103F40008904E8006FB097000000E000E5FF320050
:103F5000E0808800DA8088004F0778004F06BE00B6
:103F60004F05BE004F04BE00AF00B10000000600C8
:103F70000A00E000E7FF3A0040A08000D0B79F00B1
:103F8000E10F50003F0036000081E900844021002D
:103F9000040040009080FB0000F02F00FFB197006C
:103FA0008081610081817100DFB097000100E8002D
:103FB000040040001080FB004800DD00F30FB20059
:103FC00080817100F3B79F0003002000610351005E
:103FD000E0835900E10F4300E08F4B0040003200C6
:103FE0000602BE00AE4021008A0178006DBE2900A5
:103FF0000606EA008505EA00060578004C18DE0092
:104000003E81FB00C410DE0001006800000040009B
:104010000D004000C418DD00908068004C08DE00F0
:10402000020068006F006000000040000D004000CA
:10403000C408DD009081680061025200E0825A00ED
:104040000081EB000250B800010146008B004100E6
:104050000000430081804B0061005000E080580068
:10406000800F5200818F5A00E4FF3A007FB0970022
:10407000808F510003003A00DFB09700E28F5000BC
:1040800019003E000005EB000804E8008FB9970016
:10409000838F5400AAFF3A00EFB19700E3808800B5
:1040A000DA8088004F0778004F06BE004F05BE003B
:1040B0004F04BE00AF00B10000000600ACFF3700A7
:1040C0000A00E00093FF3A001A00200098FF370032
:1040D0000A00E0008FFF3A004AA0880094FF3700F2
:1040E0008A017800E1FF370012002000E2B79F004C
:1040F0000005EB008EFF3700889FBE008A9FBE0040
:104100008C9FBE008E1F780080057800F8808000AC
:104110000800E0006C0032006140B800610350000C
:10412000E08358008001EB00E10F4300E08F4B007B
:10413000220032000602BE000E0221006DBE2900E0
:104140000606EA000505EA00860478004C18DE0041
:104150003E81FB00C410DE0001006800000040004A
:104160000D004000C418DD00908068004C08DE009F
:10417000020068006F006000000040000D00400079
:10418000C408DD009081680061025200E0825A009C
:104190000081EB000248B800010146008A0041009E
:1041A000060040008780480061005000E080580011
:1041B000800F5200818F5A00E4FF3A000881E80026
:1041C000E401210004004100034878008400440019
:1041D0004818DE00B0409800F280880000C1B300AB
:1041E000804D780010002000220020001E10E20008
:1041F0000A003A008B00400010C0B30080487800ED
:104200001E30EF00020078004F0778004F06BE0016
:104210004F05BE004F04BE00000006008041EB00C9
:10422000120020008000EB0045C0B3008180E80050
:104230000480400010407800E14F5000150032002B
:10424000F04F500013003200E44F500011003200D4
:104250000B00410084804000114878000201E80012
:104260008341E8008380FB00F0808000810F5000D4
:10427000EEFF3E00020078000201E8008B004000E3
:1042800010C0B300804878001E30EF0002007800B4
:10429000DDFF37000B004100054878000201E8000F
:1042A0000B00410084804000114878000201E800C2
:1042B0008341E8008380FB00F0808000810F500084
:1042C000DAFF3E00EBFF3700080078004F07780068
:1042D0004F06BE004F05BE004F04BE0000000600A2
:1042E000CEFF37000000EB00000401006002200058
:1042F000303A880044C7BF00F043B20044E7B7003B
:1043000044C7BF0001CEB300014060000004A0001C
:1043100044E7B70045C7BF00F1C8B30001406000E3
:1043200045E7B7004567A9004827EF0040A7A90067
:1043300032002000A10920008007200033742000F3
:104340008049780081497800824978001200200075
:10435000710520006004200023742000804978004B
:10436000814978008249780001C3B30043C7BF0088
:104370000047B200814F5000FCFF3A0042C7BF0027
:104380000058A300FDFF320000000600881F7800DF
:104390000002BE000080EB00820F5200838F5A00A3
:1043A000030039000000E8004F0478000000060018
:1043B0000004EB000580FB00A00288009483BA0093
:1043C0001403BA000680FB00C830DE000100400084
:1043D0008780FB00010040000004440062024200AC
:1043E000E0824A00840F5100858F5900F1FF3E00A2
:1043F0000880EA000000E8004F0478000000060092
:10440000EBFF37000400FA00881F78008A9FBE0087
:104410000004EB00A80288001880BA000100200008
:10442000C000DD0000002000B0BF9F00C1BF9F00A2
:104430001800BA00010020003FB99700CFB99700DB
:104440000200700083807000B0BF9F00C1BF9F005A
:10445000F0FF2F00F10F20003FB99700CFB9970070
:10446000800F5100818F59001C0032006011B8008C
:104470000203BE000A0026002B0020000380FB0080
:10448000A00288009282BA001202BA000480FB00E7
:10449000C820DE00010040008580FB0001004000D4
:1044A0000004440062034300E0834B000601BE00A9
:1044B0008A0F53008B8F5B00F0FF3A000801EA007F
:1044C00020002000A0028800A0FF28009000BA0071
:1044D0004810DE00814F5000060032008000EB00E3
:1044E000010078004F05BE004F0478000080FA00FC
:1044F000000006004808DE0011002000804F510037
:10450000F7FF32008000EB00F5FF3700881F7800CE
:1045100060022000303A880044C7BF00F043B20078
:1045200044E7B70044C7BF0001CEB30001406000BC
:104530000004A00044E7B70045C7BF00F1C8B300BE
:104540000140600045E7B7004567A9004827EF0034
:1045500040A7A90032002000A10920008007200008
:1045600033742000804978008149780082497800BE
:104570001200200071052000600420002374200038
:1045800080497800814978008249780001C3B300EE
:1045900043C7BF000047B200814F5000FCFF3A0004
:1045A00042C7BF000058A300FDFF320040C7BF0054
:1045B0000008A3000300320092FF07000000E000A3
:1045C00012003A0010A3020002000000549C0200F6
:1045D000020000004E9F0200020000000000E00008
:1045E00008003A00ACA3020002000000A69E0200F0
:1045F000020000004E9F0200020000000000E000E8
:10460000F8FF320070A30200020000000004EB007B
:1046100008000100080078004F0478000000060040
:104620001ECEA9001EEEA90030AEA90010CEA80033
:1046300010EEA80034AEA800103A8000F00BB200D3
:104640007205200061042000237420008149780055
:1046500082497800804978003169200002CCB3009B
:10466000114061000004A0008048780092C6BF009D
:10467000024060000014A00092E6B700C4C6BF006C
:1046800001C8B300014060006042B300C4E6B70057
:10469000506C200090C060007142B3000148780067
:1046A00050012000401188000001EB000211880039
:1046B0002002A8002062A80011222000C0CFB30071
:1046C000114060000014A00080487800121188009A
:1046D00021E2A8002342A8002222A900000006002F
:1046E000000006000001780022C2BF008000EB003D
:1046F0000008A3000B003200301180000080FB0096
:10470000C400DE004400DD0080C0700001C9EA0082
:1047100022C2BF00110020000018A30001003200D7
:104720002222A900010078000000060080407800E5
:1047300023C2BF000018A300FDFF3A000180FB0068
:10474000C400DE004400DD00808070008180EA004B
:1047500021118800000006000200FA0022C2BF00FA
:104760000008A3000E003200301180000080FB0022
:10477000C400DE004400DD0080C0700081C0EA009B
:10478000E1FF9F0022C2BF000018A3001E003A00F4
:10479000110020000F80E900529F0200020000007B
:1047A000207F21007CA00200020000000004E00045
:1047B000130032000040E900E14F400010003200D9
:1047C000227F21008080FB00307F2100808140001B
:1047D000B240780023C2BF000018A300FDFF3A00DA
:1047E0000180FB00C400DE004400DD00808070001A
:1047F0008180EA0021118800830F5100F4FF3A0004
:104800000080FA00000006002222A900110020000A
:104810000F80E900529F020002000000E0FF370015
:1048200000100000F207000080000000F2170000F6
:104830000001000080000000E21900000C000000F0
:1048400080000000BC19000026000000820000006B
:10485000BE19F00019000000F01909000000000066
:104860000200EE0019000000EE190600020100002F
:10487000000000000000000000000600020200002E
:1048800000000000EE19000006000000800000009B
:10489000F41900000200000080000000F21800007F
:1048A000A0000000820000000100000000000000E5
:1048B00000000A000000000000000000006400008A
:1048C0000000000000000000E803000000000000FD
:1048D00000001000270000000000000000A086007B
:1048E000010000000000000040420F000000000036
:1048F0000000800096980000000000000000E10029
:10490000F50500000000000000CA9A003B0000000E
:1049100000000000E40B5400020000000000E8006A
:1049200076481700000000000010A500D4E8000041
:1049300000000000A0724E001809000000004000B6
:104940007A10F3005A0000000080C600A47E8D009B
:104950000300000000C16F00F28623000000000089
:104960008A5D78004563010000006400A7B3B600CB
:10497000E00D000000E889000423C7008A00000061
:10498000921900002A00000082000000286E7500C5
:104990006C6C29000030310032333400353637007A
:1049A000383941004243440045460000303132006E
:1049B000333435003637380039616200636465008E
:1049C00066000000F61900000200000080000000F0
:1049D000F81900000200000080000000FA19000031
:1049E0000200000080000000FC190000020000002E
:1049F0008200000001000000FE190000020000001B
:104A000080000000000000000181FB00A20288007D
:104A100061398800503988000081EB000208BB0032
:104A20003000240040398800C3E8A9005005200068
:104A300070398800A00A20007039880029E7A80092
:104A400000000000000000002947E200FEFF3500E2
:104A5000C3E8A80029C7BF004500DE006100600070
:104A6000000006000202BE00120024004239880045
:104A70006139880050398800A20F2000A202880006
:104A800063006000190032008080EB000000EB0042
:104A90000108BB00F10F2000100020000188BB00BE
:104AA000200020000408BB00300020000588BB0067
:104AB000C3E8A9005005200070398800A00A200032
:104AC0007039880029E7A8000000000000000000FD
:104AD0002947E200FEFF3500C3E8A80029C7BF0050
:104AE0004500DE0061006000000006000000EB00F1
:104AF0000408BB00100020000588BB008080EB008C
:104B0000200020000108BB00F10F20003000200031
:104B10000188BB00C3E8A900500520007039880057
:104B2000A00A20007039880029E7A80000000000D2
:104B300000000000E6FF3700889FBE006011B8004B
:104B40000084EB00310024000680200007002000D4
:104B500004002900250020000380FB00A00288003B
:104B600063398800523988000809BB004139880040
:104B7000C3E8A9005005200070398800A00A200071
:104B80007039880029E7A80000000000000000003C
:104B90002947E200FEFF3500C3E8A80029C7BF008F
:104BA0000201430083814B00840F5100858F59001F
:104BB000E9FF3A0029C7BF004500DE006100600040
:104BC0004F04BE0000000600FFFFFF00FFFFFF00D4
:104BD000FFFFFF00FFFFFF00FFFFFF00FFFFFF00E1
:104BE000FFFFFF00FFFFFF00FFFFFF00FFFFFF00D1
:104BF000FFFFFF00FFFFFF00FFFFFF00FFFFFF00C1
:104C0000FFFFFF00FFFFFF00FFFFFF00FFFFFF00B0
:0200000400FFFB
:10FFF000FFFFFF00C8900200009004000200000014
:0200000401F009
:10000800CF0000007B0000005E0000007F000000C1
:0C001800FF000000D9000000CF00000035
:04002400FF000000D9
:00000001FF
