:020000040000FA
:100000000002040000000000CC020000CC0200004E
:10001000CC020000CC020000CC020000CC020000A8
:10002000CC020000CC020000CC020000D45700003B
:10003000CC020000CC020000CC020000CC02000088
:10004000CC020000CC02000070520000CC02000084
:10005000CC020000CC020000CC020000CC02000068
:10006000CC020000CC020000CC020000CC02000058
:10007000CC020000CC020000F0500000CC020000D6
:10008000CC020000CC020000CC020000CC02000038
:10009000CC020000CC02000032530000B05100003E
:1000A000CC020000CC020000CC020000CC02000018
:1000B000CC020000CC020000CC0200000658000078
:1000C000CC020000CC020000CC020000CC020000F8
:1000D000CC020000CC020000CC020000CC020000E8
:1000E000CC02000038580000CC020000CC02000016
:1000F000CC020000CC020000CC020000CC020000C8
:10010000CC020000CC020000CC020000CC020000B7
:10011000CC020000CC020000CC020000CC020000A7
:10012000CC020000CC020000CC020000CC02000097
:10013000CC020000CC020000CC020000CC02000087
:10014000CC020000CC020000CC020000CC02000077
:10015000CC020000CC020000CC020000CC02000067
:10016000CC020000CC020000CC020000CC02000057
:10017000CC020000CC020000CC020000CC02000047
:10018000CC020000CC020000CC020000CC02000037
:10019000CC020000CC020000CC020000CC02000027
:1001A000CC020000CC020000CC020000CC02000017
:1001B000CC020000CC020000CC020000CC02000007
:1001C000CC020000CC020000CC020000CC020000F7
:1001D000CC020000CC020000CC020000CC020000E7
:1001E000CC020000CC020000CC020000CC020000D7
:1001F000CC020000CC020000CC020000CC020000C7
:10020000CC020000CC020000CC020000CC020000B6
:10021000CC020000CC020000CC020000CC020000A6
:10022000CC020000CC020000CC020000CC02000096
:10023000CC020000CC020000CC020000CC02000086
:10024000CC020000CC020000CC020000CC02000076
:10025000CC020000CC020000CC020000CC02000066
:10026000CC020000CC0200000000000000000000F2
:10027000000000000000000000000000000000007E
:10028000000000000000000000000000000000006E
:10029000000000000000000000000000000000005E
:1002A000000000000000000000000000000000004E
:1002B000000000000000000000000000000000003E
:1002C000000000000000000000000000000000002E
:1002D000000000000000000000000000000000001E
:1002E000000000000000000000000000000000000E
:1002F00000000000000000000000000000000000FE
:1003000000000000000000000000000000000000ED
:1003100000000000000000000000000000000000DD
:1003200000000000000000000000000000000000CD
:1003300000000000000000000000000000000000BD
:1003400000000000000000000000000000000000AD
:10035000000000000000000000000000000000009D
:10036000000000000000000000000000000000008D
:10037000000000000000000000000000000000007D
:10038000000000000000000000000000000000006D
:10039000000000000000000000000000000000005D
:1003A000000000000000000000000000000000004D
:1003B000000000000000000000000000000000003D
:1003C000000000000000000000000000000000002D
:1003D000000000000000000000000000000000001D
:1003E000000000000000000000000000000000000D
:1003F00000000000000000000000000000000000FD
:100400000FC626000EFF27000E0188000000000026
:1004100000012000200288000C00070040BD2600DB
:10042000010020000F000700000020000000E00095
:100430000200320000000200000000009A6A020080
:10044000000000000040DA000000FE0060352000DF
:100450000000E0000200320000202000900188002F
:1004600000000600A1028800800078000000EB0078
:100470001A003700E280400054A0B4009101BA0095
:10048000E280400054A0B4009102BA00E280400033
:1004900054A0B4000002EB00472BDE00F507B200C9
:1004A000A6018800602CE10008003A000049EB003A
:1004B0000201E800020039003420EC0002F0A00044
:1004C0008301E900F9FF3E00040037006128E100E4
:1004D000010032000082EB00040007001101BA00A5
:1004E0000200E000E3FF3A000000060004D0A30091
:1004F000E20F49001C003900810278003549BA003A
:100500000201E800020039003420EC0002F0A000F3
:100510008301E9000F0032002549BA000201E8001A
:10052000020039003420EC0002F0A0008301E90051
:10053000080032000400E0000600320015C9BA00CD
:100540000201E800020039003420EC0002F0A000B3
:100550008301E9008180E80054A0B4000300E000BA
:10056000E2FF3A00000006009102BA000559780047
:100570008301E900F7FF3200C82ADE000559780040
:100580008301E900F3FF32000400E000F1FF3200D4
:1005900011D9BA00EEFF37000040DA000000FE007B
:1005A000800078001106B100030035009101B10010
:1005B00001003C000050A100000006000000FA000D
:1005C0000048A900E7026000C82ADD00F48F2F0070
:1005D00006428000060262000502720004428800A2
:1005E000680060004300DE00610060004200DD0042
:1005F000B4FF2F0005418000050262000002720076
:10060000044188000080FA00000006000000FA00A3
:1006100000C8A900E7026000C82ADD00F48F2F009F
:100620001642800006026200050272001442880031
:10063000680060004300DE00610060004600DD00ED
:10064000F4FB2F00054180000502620000027200E9
:10065000044188000080FA00000006000000FA0053
:100660000328A900E7026000C42ADD00F4F82F0087
:100670006642800006026200050272006442880041
:10068000680060004300DE00610060004900DD009A
:10069000F4DF2F00154180000502620000027200A5
:1006A000144188000080FA00000006000000FA00F3
:1006B00020E8A90011E1A90000E8A9000080FA00E3
:1006C000000006000000FA002108A90013E1A900BB
:1006D0000108A9000080FA00000006000000FA00EE
:1006E0002388A9001E61AB00010032001FE1A900B0
:1006F0000388A9000080FA00000006000000FA004C
:1007000025E8A9002DE1A90005E8A9000080FA006C
:10071000000006000000FA002608A9002FE1A90049
:100720000608A9000080FA00000006000000FA0098
:100730002668A9003BE1A9000668A9000080FA002C
:10074000000006000000FA0000E8A900E7026000CF
:10075000CC2ADD00F4FF2800164280000602620069
:100760000502720014428800680060004300DE0049
:10077000610060004700DD00F4F72F0005418000B4
:100780000502620000027200044188000080FA0045
:10079000000006000000FA000108A900E70260005E
:1007A00084FF2F00264280000602620005027200CC
:1007B00024428800680060004300DE0061006000A1
:1007C0004800DD00F4EF2F000541800005026200C3
:1007D00000027200044188000080FA000000060058
:1007E0000000FA000388A900E702600084FF2F00E0
:1007F00076428000060262000502720074428800A0
:10080000680060004300DE00610060004C00DD0015
:10081000F4FF2E0015418000050262000002720004
:10082000144188000080FA00000006000000FA0071
:1008300005E8A900E7026000CC2ADD00F4FF2800EB
:10084000B64280000602620005027200B4428800CF
:10085000680060004300DE00610060004F00DD00C2
:10086000F4FF2700254180000502620000027200AB
:10087000244188000080FA00000006000000FA0011
:100880000608A900E702600084FF2F00C64280002E
:100890000602620005027200C4428800680060001F
:1008A0004302DE0061026200E0FF2F002608B6006E
:1008B00004007000304188000080FA00000006004B
:1008C0000000FA000668A900E7026000CC2ADD00FB
:1008D000F4FF2800C6428000060262000502720092
:1008E000C44288006800600074FF2F00354180001A
:1008F0000502620000007200304188000080FA00AA
:10090000000006000000FA000688A900E702600067
:1009100084FF2F00D64280000602620005027200AA
:10092000D4428800680060004300DE00610060007F
:100930004400DD00F4FE2F00354180000502620016
:1009400000027200344188000080FA0000000600B6
:100950000000FA000621EF00610888008008880086
:100960001061A9000080FA00000006000000FA00F3
:100970000A21EF0071088800900888000080FA00C2
:10098000000006000000FA000002EB00A408880046
:10099000C4088800D2088800E3088800F0088800AE
:1009A0001E61A8000080FA00000006000000FA00A6
:1009B0002221EF0041098800600988000080FA00C8
:1009C000000006000000FA002621EF00510988000F
:1009D000700988000080FA00000006000000FA009C
:1009E0003021EF00B1098800D00988000080FA00AA
:1009F000000006000000FA003421EF00C109880061
:100A0000E00988000080FA00000006000000FA00FB
:100A1000001020002202B6000000E9004F00DE00B6
:100A20000080FA00000006000000FA0021E2A900A0
:100A30002168A9002188A9000168A9000188A900EE
:100A40000080FA00000006000000FA00101180008B
:100A5000614060000080FA00000006000000FA001B
:100A60004211880000118800111188000080FA00EE
:100A7000000006000000FA00041180006602620017
:100A8000E60F520002003A003011800002003700E9
:100A900030118000F00FB2000080FA000000060064
:100AA0000000FA000411800066026200E60F5200A6
:100AB00001003200F00FB200201188000080FA001F
:100AC000000006005400F8004239880050398800C0
:100AD000613988000500FC0051052000713988004B
:100AE000A10A20007139880029E7A8000000000051
:100AF000000000005400F900000006000400A100FE
:100B0000010037000400A0005400F80050398800AC
:100B100061398800A00F2000A00288000000EB00CF
:100B20002100240041398800F10F20003208BB0069
:100B30000400A700B20078000198BB002CA7EC00CD
:100B40008301E900F9FF3A00680151000400A700A1
:100B500068015100680050001208BB00DDFF37003B
:100B6000F30F20005400F8005039880061398800E4
:100B7000A102880011002400413988000208BB004E
:100B80000388BB00D3FF37005400F80040398800C9
:100B9000D0FF3700F30F2000F50F20005400F800BD
:100BA0005039880061398800A00F2000A002880019
:100BB0000000EB000208BB000398BB000408BB0068
:100BC0000598BB001100240041398800C1FF37009F
:100BD0005400F800A1028800800278006200400002
:100BE000E08048003549BA003204E0000410A70054
:100BF000100032008301E9000E0032002549BA00DE
:100C00003204E0000410A7000A0032008301E9006A
:100C1000080032000408A300EEFF320015C9BA0034
:100C20003204E0000410A700020032008301E90052
:100C3000E8FF3A005400F900000006000000FA0046
:100C400006C2B3000002780004007800B0427800C9
:100C500086CF5200FBFF3200E9CF5200F9FF32008D
:100C6000D6C2B30086CF520003003A0000027800DB
:100C700016C0B300050037000043EB00B7C2B30055
:100C800087CF520001003A00000278000000EB001C
:100C900002003700EA00B80000804200B402FB0006
:100CA0000503B100E98F5200FAFF3600E04F530010
:100CB000010032000000EA000080FA000000060097
:100CC0000000FA00800178008103780007027800B4
:100CD0000100370085017800110009000282D80068
:100CE000000278008302E800E00F5200F9FF3A00AA
:100CF000844A7800110009008283D80080027800BD
:100D00000142780085037800E94F52000100340069
:100D10006742420001C3B30081514200E08F52009C
:100D2000F4FF3A00030078000080FA00000006009B
:100D30000000FA00881F780000047800E08F50005F
:100D400005003D0008007800D4C2B30004587800C4
:100D50008100EA000100370008007800D8FF070092
:100D6000080078004F0478000080FA0000000600B8
:100D70000000FA00030037000201E900B0CF1000C4
:100D80000500320000027800E00F5100FAFF3A003F
:100D90000200780001003700040078000080FA00AB
:100DA000000006000000FA00000278000200370090
:100DB000315A78000201E900E00F5100FCFF3A00CF
:100DC0000080FA00000006000000FA00000278002F
:100DD00002003700015A78000201E900E00F5100DB
:100DE000FCFF3A000080FA00000006000000FA0054
:100DF0000002780084027800050278000043EB00CE
:100E0000B44F1300FBFF3A0031427800845A780057
:100E1000E04F5200FCFF3A000080FA00000006009C
:100E20000000FA0000027800040078000002780058
:100E3000B442780081CF520003003200E0CF52006C
:100E4000F9FF3A000000EB000080FA000000060005
:100E50000000FA00B042780031C2520002003A00AD
:100E6000E0CF5200FBFF3A000400FB000080FA00D4
:100E7000000006000000FA0000027800B14278008D
:100E8000055A7800E0CF5200FCFF3A000080FA00DB
:100E9000000006000000FA00000278008042EB002B
:100EA000B4CF1200FDFF3A000080EA0000004200CB
:100EB0000080FA00000006000000FA00889FBE00D3
:100EC0000004BE000B00370009007800F1FF0700A6
:100ED000000178000800BE0067000700E00F500026
:100EE0000A0032000800E8009900FB00CCFF070070
:100EF00000047800E00F5400040032000042EB00D0
:100F0000984F1200F0FF3A000004EB000800780050
:100F10004F04BE000080FA00000006000000FA0046
:100F2000889FBE000004BE00E00F540003003A009A
:100F300068578300E00F5400150032000800BE001F
:100F400032000700000444000042EB00984F1200FA
:100F500003003A000004EB0068578B000C003700D8
:100F60000800BE000E0007000000440060578B0020
:100F70000042EB00904F1200030032000058EB00DB
:100F800060578B00020037000002EB0064578B00B3
:100F9000080078004F04BE000080FA000000060040
:100FA0000000FA00889FBE008A9FBE008C9FBE0092
:100FB000810578000005EB006044B8006106B800C8
:100FC0000200370061044400E0844C000C0245003C
:100FD00094407800E0CF5000060032008100FB0012
:100FE0000B0078008EFF07000A05E800E00F5000B4
:100FF000F4FF32000800BE004F06BE004F05BE00E1
:101000004F04BE000080FA00000006000000FA0055
:10101000889FBE008A9FBE008C9FBE00810578001D
:101020000005EB006044B8006106B800020037001C
:1010300061044400E0844C000C02450094407800B8
:10104000E0CF5000060032008100FB000B0078006A
:1010500073FF07000A05E800E00F5000F4FF3A00B4
:101060000800BE004F06BE004F05BE004F04BE0084
:101070000080FA00000006000000FA000B003700B4
:1010800030427800E04F5200030032000201E900D4
:10109000B14F5200050032000480FB0095427800F9
:1010A0008582FB00050050000400370081027800B3
:1010B000E00F5100F2FF3A00020078000080FA00D1
:1010C000000006003E0000004448000043500000BD
:1010D0000044000043480000500000002A52000075
:1010E00045410000445900002A0000002A52000037
:1010F000656200006F6F0000742A0000003D000070
:101100000053000053490000440000000D0000009F
:1011100043480000414E00000050000041530000D1
:1011200053500000485200004153000045000000A9
:10113000454E0000440000002C0000003134000047
:10114000343300000066000061630000746F00002B
:101150007279000020520000455300004554000001
:101160000D0A000000730000657400002077000085
:101170006C6100006E2000007478000020310000D7
:10118000320D00000A0000007365000074200000AA
:10119000776C0000616E0000206A00006F6900003B
:1011A0006E200000370D00000A000000736500008B
:1011B00074200000776C0000616E00002073000056
:1011C0007369000064200000007300006574000073
:1011D000207700006C6100006E2000006175000047
:1011E00074680000203000000D0A00000073000049
:1011F00065740000207700006C6100006E20000024
:10120000706800007261000073650000200000003B
:101210007365000074200000617000006D6F0000B5
:101220006465000020730000736900006420000002
:101230000073000065740000206900007020000049
:101240006468000063700000203400000D0A000094
:101250000073000065740000206900007020000029
:101260006164000064720000657300007320000078
:1012700031360000392E000032350000342E0000D7
:10128000312E0000310D00000A00000073650000DF
:101290007420000069700000206E0000657400007A
:1012A0006D610000736B00002032000035350000D6
:1012B0002E320000353500002E320000353500009A
:1012C0002E3000000D0A000000730000657400005D
:1012D0002069000070200000676100007465000054
:1012E000776100007920000031360000392E0000BF
:1012F00032350000342E0000312E0000310D000088
:101300000A0000007365000074200000697000008E
:10131000206C00006F630000616C0000706F0000C3
:10132000727400002032000030300000300D0000E8
:101330000A0000007365000074200000697000005E
:1013400020720000656D00006F74000065200000D1
:1013500032300000303000000D0A00000073000041
:1013600065740000206900007020000070720000A9
:101370006F7400006F6300006F6C0000203200008B
:101380000D0A000000730000657400002069000071
:1013900070200000686F00007374000020320000AD
:1013A000353500002E320000353500002E320000A9
:1013B000353500002E320000353500000D0A0000E2
:1013C000007300006574000020620000726F00006E
:1013D0006164000063610000737400002069000014
:1013E0006E74000065720000766100006C200000E1
:1013F000300D00000A00000073650000742000003A
:10140000636F00006D6D000020740000696D0000C6
:1014100065200000320D00000A0000007365000026
:1014200074200000636F00006D6D000020730000E9
:10143000697A00006520000031300000343200007D
:101440000D0A0000007300006574000020730000A6
:1014500079730000206900006F660000756E00005F
:101460006320000030780000343000000D0A0000D6
:1014700000730000657400002075000061720000B8
:1014800074200000626100007564000020340000D8
:101490003630000038300000300D00000A00000037
:1014A0007365000074200000756100007274000014
:1014B000206600006C6F000077200000310D0000F6
:1014C0000A0000007365000074200000776C0000C3
:1014D000616E000020630000686100006E6E000015
:1014E000656C0000200000006765000074200000AB
:1014F000776C0000616E00000D0A000000340000EF
:101500002E30000030000000120100000002000038
:101510000200000000080000CF10000010A2000030
:1015200000010000010200000001000009020000AB
:10153000430000000201000000C00000FA090000A2
:101540000400000000010000020200000100000091
:101550000524000000100000010400002402000027
:101560000205000024060000000100000524000020
:1015700001000000010700000581000003080000D1
:10158000000200000904000001000000020A00003F
:1015900000000000000700000502000002400000FB
:1015A000000000000705000082020000400000006B
:1015B0000000000004030000090400002A030000EA
:1015C00056000000650000006C0000006C00000088
:1015D000650000006D000000610000006E0000006A
:1015E00020000000490000006E00000073000000B1
:1015F0007400000072000000750000006D00000023
:10160000650000006E000000740000007300000020
:10161000480300005700000046000000530000008F
:101620003200000031000000300000002000000007
:10163000570000006900000046000000690000003B
:101640002000000053000000630000006F00000055
:101650007000000065000000200000003200000063
:10166000200000004300000068000000610000004E
:101670006E0000006E000000650000006C000000BD
:101680002000000031000000300000004D0000008C
:10169000530000002F000000730000000000000055
:1016A000968A0000DA8A0000DE8A0000088B0000BB
:1016B0000000000000000000900100000000000099
:1016C0002003000000000000D00700000000000020
:1016D000A00F000000000000401F000000000000FC
:1016E000204E000000000000409C000000000000B0
:1016F0008038000001000000400D000003000000E1
:10170000801A000006000000003500000C000000F8
:10171000F401000000000000E803000000000000E9
:10172000C409000000000000881300000000000051
:101730001027000000000000A86100000000000069
:1017400050C3000000000000A0860000010000005F
:1017500090D000000300000020A10000070000005E
:10176000404200000F00000000E10000F50500000D
:101770000000FA00889FBE008A1F7800A0E52500BF
:10178000C4C3B300904F12003D00320058AF820036
:10179000E20F54001E003200FE0F54001C00320005
:1017A00094022000840F5400190032000482E800E3
:1017B000840F54001600320067024200840F540068
:1017C000130032006A024200840F540010003200FD
:1017D0000482E800840F54000D00320054022000FF
:1017E000840F54005200320014022000840F540071
:1017F000590032002802B100E10F54003D003600CC
:101800004F0578004F04BE000080FA00000006007B
:10181000845E250014027800640262000E0032002B
:1018200041862800A0E525005C07020000000000BA
:10183000E00F50002500320044AF82000410A000E9
:1018400044AF8A004F0578004F04BE000080FA00C4
:1018500000000600EEFF3700E1862800A0E5250025
:101860005C07020000000000E00F5000DBFF3200C8
:1018700044AF82000410A00044AF8A00F1FF37009B
:1018800044AF82000430A00044AF8A0055AF82000C
:1018900014022000848F5200D9FF3A0021862800CC
:1018A0008E070200000000008000E80000FA25001A
:1018B0003A070200000000004F0578004F04BE0008
:1018C0000080FA0000000600D1FF37009186280052
:1018D000A0E525005C07020000000000E00F5000BA
:1018E000BEFF320044AF82000410A00044AF8A0063
:1018F000D4FF370081892800A0E525005C0702009D
:101900000000000000047800E00F540046003200A0
:1019100044AF82000440A00044AF8A004F05780025
:101920004F04BE000080FA0000000600B8FF370038
:1019300061872800A0E525005C0702000000000088
:10194000E00F5000AEFF320044AF82000410A00050
:1019500044AF8A00BBFF3700D1032000A0E525007B
:101960001007020000000000E00F5000A4FF32004A
:10197000F1872800A0E525008E0702000000000086
:101980000004780018407800E04F50000800320052
:10199000880478000000FB00D00202000000000074
:1019A000804C780059407800E04F5000F9FF3A0031
:1019B00011882800080078002807020000000000B5
:1019C000E00F5000440032008188280008007800B1
:1019D0002807020000000000E00F50004A0032001B
:1019E000D1882800080078002807020000000000C5
:1019F000E00F500082FF3A00618828008E07020045
:101A00000000000080007800C0F725003A070200BF
:101A1000000000004F0578004F04BE000080FA006F
:101A2000000006007AFF3700C1022000A0E5250073
:101A30001007020000000000E00F500070FF3200AD
:101A4000C1892800A0E525008E07020000000000E3
:101A5000C1892800080078008E07020000000000FD
:101A60001E060200000000000005E900E655B8006F
:101A7000E4F22000840245006908250085824400C4
:101A800015007800E00F50002A003200C1892800BC
:101A9000080078008E070200000000001E06020009
:101AA0000000000004F32000840245008582440009
:101AB000950F500052FF34008A8444000482440091
:101AC000000A78004F0578004F04BE000080FA003D
:101AD000000006004EFF3700618828008E070200D4
:101AE0000000000080007800C0F525003A070200E1
:101AF000000000004F0578004F04BE000080FA008F
:101B00000000060042FF3700618828008E070200AF
:101B1000000000001E0602000000000080FD8A0098
:101B20004F0578004F04BE000080FA000000060058
:101B300037FF37008A8444000482440015002000E7
:101B4000050A7800C18928008E0702000000000005
:101B50001E0602000000000004F3200084844400FC
:101B6000800C78004F0578004F04BE000080FA001A
:101B70000000060026FF37000000FA0040A52500FF
:101B8000FA69020000000000E06425003A670200E4
:101B9000000000000080FA00000006000000FA00CB
:101BA00044FB250026000900001AEB0004F82F0072
:101BB000B4FD8A00E4FD8A0014FE8A0044FE8A0017
:101BC00074FE8A00A4FE8A00D4FE8A0004FF8A0004
:101BD00034FF8A0064FF8A0094FF8A00C4FF8A00F1
:101BE000F4FF8A00845E25001440A1000080FA0002
:101BF000000006000000FA0034AEA90000C429006D
:101C000001002000326C02000000000040A5250009
:101C1000FA69020000000000E06425003A67020053
:101C200000000000845E25001410A100A4F525002A
:101C3000000AEB0034AEA8000080FA0000000600A5
:101C40000000FA00845E2500940278000500A100DF
:101C50000520A000050A78000002EB0054AF8A00BE
:101C6000D4FA8A008A030200000000000080FA0013
:101C7000000006000000FA00881F78001ECEA900B0
:101C80001EEEA9001FEEA90030AEA90011EEA800BB
:101C900010CEA80010EEA80034AEA900F40F2C005E
:101CA00095348000050262000480A000943488000E
:101CB00004FC2F0095348000050262000410A0008F
:101CC0009434880004F82F00253680000502620055
:101CD0006402B30024368800F40F28002536800003
:101CE0000502620005702200050272002436880099
:101CF00034AEA90000C4290001002000326C0200AB
:101D00000000000040A52500FA6902000000000064
:101D1000E06425003A6702000000000044AF820042
:101D20000410A10044AF8A00A8F52500000CEB00C8
:101D300034AEA80052012000D175290090602C001B
:101D40002E0502000000000044AF8200D5012000F3
:101D500055AF8A005402B30044AF8A002405020044
:101D600000000000E04F5000FCFF32003A05020086
:101D7000000000002405020000000000E04F5000B9
:101D8000FCFF32003A05020000000000E04F500066
:101D900037003200947180000420B2000A00320043
:101DA000C5F92500E489280003000900B45A780029
:101DB00005FA250007000900801AEB004F0478009F
:101DC0000080FA0000000600C5F525000F0009009C
:101DD000801AEB007665240037252300E6FA8A0096
:101DE000F7FA8A001503230005FB8A0025F6250073
:101DF000844A7800C4F725000F000900001AEB00A0
:101E0000E6FB8A00F7FB8A0014032300353726001F
:101E100004FC8A0015FC8A00F40627005506200001
:101E200024FC8A0035FC8A005400200084FD8A00CE
:101E300044AF8200A502200055AF8A001402B3000F
:101E400044AF8A00C5F92500E48928000300090091
:101E5000B45A780005FA250007000900801AEB0043
:101E60004F0478000080FA0000000600D6FF37001B
:101E7000140502000000000034AEA90000C42900CF
:101E800001002000326C02000000000040A5250087
:101E9000FA69020000000000E06425003A670200D1
:101EA0000000000044AF82000410A10044AF8A008B
:101EB000000CEB0034AEA80032102000D1752900D0
:101EC00000C02C002E0502000000000044AF82007C
:101ED0000420A1001500200055AF8A001402B300B1
:101EE00044AF8A00C5F92500E489280003000900F1
:101EF000B45A780005FA250007000900801AEB00A3
:101F00004F0478000080FA0000000600AEFF3700A2
:101F10000000FA0010A78A000080FA000000060006
:101F20000000FA0010A782000080FA0000000600FE
:101F30000000FA00845E25006100600094027800D1
:101F40000500A100008A720040A52500FA69020080
:101F500000000000E06425003A6702000000000075
:101F60000080FA00000006000000FA009070800077
:101F70004F00DE000080FA00000006000000FA00BA
:101F80005086820000F0A7000000EA000000E9008F
:101F90004F00DE000080FA00000006000000FA009A
:101FA000881F780024A78200F50F20008482520049
:101FB00001047800850F5400010036000504780004
:101FC000E00F540007003A00454E2500880A420001
:101FD0000582E800140A44004F0478000080FA00EB
:101FE00000000600854E2500050242000801780029
:101FF0008000780004007800D20602000000000093
:1020000024A78200454E2500880A42000582E80088
:10201000140A44004F0478000080FA000000060013
:10202000F0FF37000000FA00889FBE008A1F78008A
:1020300000047800B804900058029000848F540087
:10204000250036007202520084845400390498003E
:10205000E8029000048242006404980024412000B9
:10206000848F540024003600540498000940200056
:10207000780044009800780009017800D206020038
:1020800000000000188C4400D800900068855000C3
:10209000E6844000890444008180E900680044002F
:1020A000126C0200000000000A054400604D980018
:1020B000A4C0B300944498001400200014049800B5
:1020C00058029000240498004F0578004F04BE0089
:1020D0000080FA00000006000002EB0034049800C3
:1020E000140498004F0578004F04BE000080FA00E9
:1020F00000000600F8FF370059049800F2845400ED
:10210000780044009800780009017800D2060200A7
:1021100000000000188C4400D80090006885500032
:10212000E6844000890444008180E900680044009E
:10213000126C0200000000000A054400604D980087
:10214000A4C0B30094449800140020001404980024
:102150005802900024049800DBFF37000000FA00CA
:10216000889FBE008A9FBE008C1F78000004780004
:1021700025C0B300040D2500054A78000402E800DC
:1021800098429000054A78001806900024412000EB
:10219000840F56002C003E009C868A007205560073
:1021A000E80456000C86E90028029000A4868A0004
:1021B00038029000C8029000B4868A00C5868A0062
:1021C00058029000E8029000D4868A00E5868A00D2
:1021D000F8029000F5868A00F00544000A017800B4
:1021E0008B007800000E2500D206020000000000DF
:1021F000840C25000A8A45006E0542000A854400C9
:102200008C00780068004200126C020000000000A0
:10221000004D7800A4C0B300144598001804900045
:1022200078868A009486820064868A0014002000E2
:1022300054868A004F0678004F05BE004F04BE004A
:102240000080FA000000060094868A000C412000FD
:10225000A94020000A40200028029000A4868A009D
:1022600038029000C8029000B4868A00C5868A00B1
:1022700058029000E8029000D4868A00E5868A0021
:10228000F8029000F5868A00F00544000A01780003
:102290008B007800000E2500D2060200000000002E
:1022A000840C25000A8A45006E0542000A85440018
:1022B0008C00780068004200126C020000000000F0
:1022C000004D7800A4C0B300144598001804900095
:1022D00078868A009486820064868A001400200032
:1022E00054868A004F0678004F05BE004F04BE009A
:1022F0000080FA0000000600D3FF37000000FA005B
:10230000881F78000004780018407800E04F5000E3
:10231000070032000000FB00D002020000000000B5
:10232000004C780058407800E04F5000F9FF3A0028
:102330004F0478000080FA00000006000000FA0058
:10234000889FBE008A1F780080047800C4C3B30051
:10235000994F12003D00320058AF8200E20F540046
:102360001E003200FE0F54001C00320094022000B8
:10237000840F5400190032000482E800840F5400D6
:102380001600320067024200840F5400130032002E
:102390006A024200840F5400100032000482E800F8
:1023A000840F54000D00320054022000840F5400AA
:1023B0005300320014022000840F54005A003200EF
:1023C0002802B100E10F54003E0036004F057800AE
:1023D0004F04BE000080FA0000000600845E250065
:1023E00014027800640262000E0032004186280068
:1023F000090078005C07020000000000E00F5000B8
:102400002600320044AF82000410A00044AF8A00CE
:102410004F0578004F04BE000080FA00000006005F
:10242000EEFF3700E1862800090078005C07020013
:1024300000000000E00F5000DBFF320044AF8200DC
:102440000410A00044AF8A00F1FF370044AF8200BF
:102450000430A00044AF8A0055AF8200140220006F
:10246000848F5200D9FF3A002186280009007800A5
:102470008E070200000000008000E80000FA25003E
:102480003A070200000000004F0578004F04BE002C
:102490000080FA0000000600D0FF37009186280077
:1024A000090078005C07020000000000E00F500007
:1024B000BDFF320044AF82000410A00044AF8A0088
:1024C000D3FF370081892800090078005C070200EB
:1024D0000000000000047800E00F540046003200C5
:1024E00044AF82000440A00044AF8A004F0578004A
:1024F0004F04BE000080FA0000000600B7FF37005E
:1025000061872800090078005C07020000000000D5
:10251000E00F5000ADFF320044AF82000410A00075
:1025200044AF8A00BAFF3700D103200009007800C9
:102530001007020000000000E00F5000A3FF32006F
:10254000F1872800090078008E07020000000000D3
:102550000004780018407800E04F50000800320076
:10256000880478000000FB00D00202000000000098
:10257000804C780059407800E04F5000F9FF3A0055
:1025800011882800080078002807020000000000D9
:10259000E00F5000440032008188280008007800D5
:1025A0002807020000000000E00F50004A0032003F
:1025B000D1882800080078002807020000000000E9
:1025C000E00F500081FF3A00618828008E0702006A
:1025D0000000000080007800C0F725003A070200E4
:1025E000000000004F0578004F04BE000080FA0094
:1025F0000000060079FF3700C102200009007800C2
:102600001007020000000000E00F50006FFF3200D2
:10261000C1892800090078008E0702000000000030
:10262000C1892800080078008E0702000000000021
:102630001E060200000000000005E900E655B80093
:10264000E4F22000840245006908250085824400E8
:1026500015007800E00F50002A003200C1892800E0
:10266000080078008E070200000000001E0602002D
:102670000000000004F3200084024500858244002D
:10268000950F500051FF34008A84440004824400B6
:10269000000A78004F0578004F04BE000080FA0061
:1026A000000006004DFF3700618828008E070200F9
:1026B0000000000080007800C0F525003A07020005
:1026C000000000004F0578004F04BE000080FA00B3
:1026D0000000060041FF3700618828008E070200D5
:1026E000000000001E0602000000000080FD8A00BD
:1026F0004F0578004F04BE000080FA00000006007D
:1027000036FF37008A84440004824400150020000C
:10271000050A7800C18928008E0702000000000029
:102720001E0602000000000004F320008484440020
:10273000800C78004F0578004F04BE000080FA003E
:102740000000060025FF37000000FA00889FBE0049
:10275000790825000004EB002405020000000000B9
:10276000E04F5000080032003A050200000000006F
:10277000806C78000804E8002405020000000000D6
:10278000E04F5000F8FF3A002222AB000100320077
:102790002222A900895E25009902780061826200E8
:1027A00025003200E00F5400380032008800780025
:1027B00080082500A0630200000000009904780052
:1027C00061826400220032008080EB00D0FB2F0089
:1027D000E20402000000000040FF2F003E0402005F
:1027E00000000000084178008108250040A5250070
:1027F000166A020000000000A1E5250040A52500A2
:10280000226A020000000000E00F500007003200C2
:10281000D7FB0700A1E5250040A52500226A02009C
:1028200000000000E00F5000F9FF3A004F04BE0026
:102830000080FA0000000600E00F5400DBFF3A00C1
:102840004F04BE000080FA0000000600FAFF3700C7
:102850000841780081082500E064250044670200F3
:102860000000000021042600E064250050670200FB
:1028700000000000E00F5000ECFF320020042600B2
:102880009863020000000000F6FF370040A5250015
:10289000046A020000000000E00F5000E3FF3A006D
:1028A000D4FA8200E50F5200E0FF340088082500CA
:1028B000A4C0B300044C78008080EB00D0FB2F0054
:1028C000E20402000000000040FF2F003E0402006E
:1028D0000000000012C0B3008800780040A5250069
:1028E000166A020000000000A1E5250040A52500B1
:1028F000226A020000000000E00F5000CBFF32000F
:102900009BFB0700F8FF37000000FA000003EB0014
:10291000D6FA8A00855E2500150278000430A100F1
:1029200066AF8A000450A100840A78008000780015
:10293000668042003A07020000000000A45E250005
:10294000140AE8000080FA00000006000000FA0007
:1029500040AF82000000D100610060000080FA00FA
:10296000000006000000FA0040AF82004300DE00D5
:10297000610060000080FA00000006000000FA001C
:1029800040AF82004400DE00610060000080FA0079
:10299000000006000000FA00881F78000608AB005F
:1029A00003003A004F0478000080FA00000006009F
:1029B0008080EB00D0FB2F00E2040200000000004A
:1029C00040FF2F003E04020000000000A8F5250093
:1029D0001802E800D4FA8A00F40F5200F1FF340024
:1029E000A45E2500F6FD2F0094024300E88F5200FC
:1029F000ECFF3E0045AF82000500A1000520A000CD
:102A000045AF8A00000AEB00000CEB008A030200CD
:102A10000000000034AEA90000C42900010020001D
:102A2000326C02000000000040A52500FA69020097
:102A300000000000E06425003A670200000000008A
:102A400044AF82000410A10044AF8A00000CEB00E8
:102A500034AEA8004F0478000080FA0000000600A1
:102A6000D3FF37000400FA00889FBE008A9FBE0093
:102A70008C9FBE00C4FB250000082000940040008D
:102A80008182D1006602520014024000048142009B
:102A900026FC2500160040004286DE000C014100A5
:102AA000660343000308200096834100C2BCDE0099
:102AB00070035300090B41000485D1000105450056
:102AC0000081D100020545000A85440076034300D9
:102AD0001683410042B4DE00E3FB2500880945006F
:102AE000C2A6DE008D8642008D0640008785D1009B
:102AF0008B8646008D064400F68241000A082000BD
:102B000095024500C2A9DE004AFC2500038D46005F
:102B1000428DDE0043A2DE000402450004014100B4
:102B2000028143008686D1001D0798000D014100F7
:102B300002814100020F7800A4FD25000208200058
:102B40001402410042A1DE009E067800AAFC250086
:102B5000028D4600C388DE00010646000C86450053
:102B60000C0643008586D1000D0646000C06410088
:102B7000F60045000A08200091004500C28DDE00E5
:102B80000B0F78000AFD25000B0D46004386DE0082
:102B90000C8644009E0590000C8645000C86420081
:102BA0008485D1000B0646001E0078000C0640000C
:102BB000760045000908200010804400C284DE0031
:102BC00066054500090D4600C3BBDE00070444004E
:102BD000888646008D0642000185D1008A8646001F
:102BE0008D864400C7FE25000C0820009703460090
:102BF00042BCDE00CCFD2500088E4600C3B6DE00D8
:102C00008D8641008D8645008D8640000086D1006E
:102C10008C8646008D06440026FF25000B08200008
:102C200096814500429BDE002BFE2500868D4600E6
:102C3000C3AEDE008D0641008D0645008D064000C6
:102C40000785D1008A8646008D064300F68245003E
:102C5000020820009502410042A9DE00E6854500F9
:102C6000828D460043A2DE009E0578000482450066
:102C7000040646000C8643008385D1000B064600FF
:102C80000C014100E4FF25000C082000140246005E
:102C900042A6DE00EDFE25008C0E4100C388DE005A
:102CA00081844400090545008A8141008580D10066
:102CB0008181410066814600030946004380DE00B1
:102CC00000044400888545008B8242000481D100C5
:102CD0006C80460002884200C3BBDE0006834300CE
:102CE000010343000603420006008B00C4FD82007E
:102CF000853E2000850F5200010035000502780056
:102D0000F5FD820017002000850F520001003C00F5
:102D10008003EB00850F52000100340005027800AB
:102D200025FE820020002000848F52000100350023
:102D300007007800850F520001003400050278007A
:102D400055FE820037002000848F520001003500BC
:102D500080037800850F52000100340005027800DE
:102D600085FE820040002000848F52000100350063
:102D700007007800850F520001003400050278003A
:102D8000B5FE820057002000848F520001003500FC
:102D900080037800850F520001003400050278009E
:102DA000E5FE820060002000848F520001003500A3
:102DB00007007800850F52000100340005027800FA
:102DC00015FF820077002000848F5200010035003B
:102DD00080037800850F520001003400050278005E
:102DE00045FF820080002000848F520001003500E2
:102DF00007007800850F52000100340005027800BA
:102E000075FF820097002000848F5200010035007A
:102E100080037800850F520001003400050278001D
:102E2000A5FF8200A0002000848F52000100350021
:102E300007007800850F5200010034000502780079
:102E4000D5FF8200B7002000848F520001003500BA
:102E500080037800850F52000100340005027800DD
:102E6000C0002000840F53000100350007007800E7
:102E70000000E8004F06BE004F05BE004F04BE0034
:102E80000080FA00000006000000FA0004FB2500A4
:102E90001402E900E622B800E5F220000502420033
:102EA0006508250004824200100020008002EB002B
:102EB000948F12002A003200A5FD8200E08F52009C
:102EC00029003A00D4FD8200E00F5200DF003A00F2
:102ED0008402780006FE8200E00F5300CC003A0026
:102EE00036FE8200E00F53008E003A0066FE82003C
:102EF000E00F5300B7003A0096FE8200E00F530047
:102F000096003A00C6FE8200E00F5300A2003A008D
:102F1000F6FE8200E00F530073003A0026FF8200A5
:102F2000E00F530061003A0056FF8200E00F5300AB
:102F300040003A0086FF8200E00F53004C003A0048
:102F4000B6FF8200E00F53002C003A00E6FF82003B
:102F5000E00F53001F003A0080FD8A000000EB00E4
:102F60000080FA0000000600B4FD8200E00F52006D
:102F700015003D008002780020002000D6FD820070
:102F8000E00F5300D3FF32000000EB00E6FD8200AB
:102F9000840F530002003D00060278002500200047
:102FA000E00F5000CBFF3A0006FE8200E00F530016
:102FB00097003A003000200036FE8200E00F5300F8
:102FC000CAFF3200570037000002EB00840278008D
:102FD000E9FF3700F6FF8200840F530001003D0037
:102FE000D5002000E00F5000DBFF3A0085FD8A008D
:102FF0000080FA0000000600DBFF3700C6FF8200F9
:10300000840F530002003D0006027800C500200036
:10301000E00F5000CDFF3A00E6FF8200E00F5300C2
:10302000ECFF3A00D000200080FD8A000000EB0099
:10303000CBFF370066FF8200840F530002003D0083
:1030400006027800A5002000E00F5000B9FF3A000A
:1030500086FF8200E00F530005003A00B000200018
:10306000B6FF8200E00F5300B8FF3200E3FF3700E5
:1030700096FF8200840F530002003D000602780094
:10308000B5002000E00F5000ADFF3A00B6FF82000F
:10309000E00F5300D9FF3A00C0002000E6FF820095
:1030A000E00F5300ACFF3200CAFF370036FF82004A
:1030B000840F530002003D000602780095002000B6
:1030C000E00F500098FF3A0056FF8200E00F5300D7
:1030D000D8FF3A00A000200086FF8200E00F5300D6
:1030E00097FF3200E2FF370006FF8200840F530093
:1030F00002003D000602780085002000E00F50002D
:1031000086FF3A0026FF8200E00F5300E7FF3A00F7
:103110009000200056FF8200E00F530085FF320030
:10312000C4FF370046FE8200860F520002003400C2
:103130000602780045002000E00F50006BFF3A00C7
:1031400066FE8200E00F530022003A00500020008B
:1031500096FE8200E00F53006AFF3200A6FE820056
:10316000840F530002003D00060278006500200035
:10317000E00F500063FF3A00C6FE8200E00F5300EC
:1031800005003A0070002000F6FE8200E00F5300B8
:1031900062FF3200D4FF3700D6FE8200840F530056
:1031A00002003D000602780075002000E00F50008C
:1031B00057FF3A00F6FE8200E00F5300CAFF3A00C4
:1031C0008000200026FF8200E00F530056FF3200EF
:1031D000B6FF370076FE8200840F530002003D00E8
:1031E0000602780055002000E00F500042FF3A0030
:1031F00096FE8200E00F5300D8FF3A0060002000E6
:10320000C6FE8200E00F530041FF3200E2FF3700AC
:1032100016FE8200840F530002003D000602780073
:1032200035002000E00F50002DFF3A0036FE8200EE
:10323000E00F5300BBFF3A004000200066FE820012
:10324000E00F53002CFF3200E2FF37000502780048
:10325000840278004DFF37000200FA00889FBE000C
:103260008A9FBE008C9FBE0054AF820005002000E4
:1032700061025200E0825A0006042000860F5200CC
:10328000E08F5A0050003E0004060100ED003700B8
:10329000590137003B013700240137000C0137008A
:1032A000690237003302370019023700DF013700A7
:1032B000A90137009101370079013700610137001A
:1032C0007C063700DD033700C5033700AD03370048
:1032D000950337007D033700650337004D03370042
:1032E000350337001D03370005033700D3023700CD
:1032F000B7023700960237007E02370069023700B6
:103300008D0037001F053700080537003A053700E4
:10331000D90437001E003700BD043700A904370068
:103320007E04370062043700420437002E04370061
:103330001904370005043700E7033700DE033700C0
:10334000480537002B0637002206370019063700DC
:103350006F00370070003700EE0537002D0637008C
:10336000CD033700BD053700B4053700AB05370086
:103370008F0537006F0537005B05370041053700C3
:103380009D0037007F00370030063700C600370049
:1033900044AF82004422DE00614262000A00320033
:1033A000B0FD070084FD8200800F5200A6063200A7
:1033B00080FD8A0044AF82000430A00044AF8A0040
:1033C0007403200054AF8A008B5E25000A0220009F
:1033D000E48445008D5620006C0825000605020097
:1033E00000000000E04F500013003A001B0265008F
:1033F00011003A0068AF82000D0444000C04440040
:103400001800FB005005020000000000990CE800C5
:1034100018429000E04F5200F0FF3A0044AF8200A3
:103420000450A00044AF8A0006050200000000001E
:10343000E04F5000EDFF32000608AB0005003A00F7
:103440004F06BE004F05BE004F04BE000080FA00CC
:10345000000006008080EB00D0FB2F00E204020099
:103460000000000040FF2F003E04020000000000AA
:10347000A8F525001802E800D4FA8A00F40F5200DB
:10348000EFFF3400A45E2500F6FD2F0094024300F8
:10349000E88F5200EAFF3E0045AF82000500A10020
:1034A0000520A00045AF8A00000AEB00000CEB00ED
:1034B0008A0302000000000034AEA90000C4290005
:1034C00001002000326C02000000000040A5250031
:1034D000FA69020000000000E06425003A6702007B
:1034E0000000000044AF82000410A10044AF8A0035
:1034F000000CEB0034AEA8004F06BE004F05BE0026
:103500004F04BE000080FA0000000600D1FF370023
:103510003403200054AF8A00A45E2500140AE8009A
:103520008B5E25000A022000E48445008D562000B1
:103530006C082500A9FF370040AF82000000D100D1
:1035400061426000A0FF32008080EB00D0FB2F00C2
:10355000E20402000000000040FF2F003E040200D1
:1035600000000000A45E2500140AE8008B5E250020
:103570000A022000E48445008D5620006C082500D6
:1035800096FF37000608AB008FFF3200A4F5250038
:10359000000AEB00C45E2500000AEB004442220052
:1035A0004502200074AF8A0085AF8A000404200021
:1035B00054AF8A0054FD2F0045AF820004826200A0
:1035C00044AF8A008080EB00D0FB2F00E2040200B1
:1035D0000000000040FF2F003E0402000000000039
:1035E0008B5E25000A022000E48445008D562000F1
:1035F0006C08250079FF370040AF82000000D10041
:103600006142600070FF32008080EB00D0FB2F0031
:10361000E20402000000000040FF2F003E04020010
:1036200000000000A45E2500140AE8008B5E25005F
:103630000A022000E48445008D5620006C08250015
:1036400066FF370034AEA90000C429000100200045
:10365000326C02000000000040A52500FA6902005B
:1036600000000000E06425003A670200000000004E
:1036700044AF82000410A10044AF8A00A4F52500E5
:10368000000AEB0034AEA800A45E2500140AE8008E
:103690008B5E25000A022000E48445008D56200040
:1036A0006C0825004DFF37000608AB0046FF3200CE
:1036B00068680200000000008B5E25000A022000FE
:1036C000E48445008D5620006C08250043FF370038
:1036D00044AF8200C322DE00E1C262003AFF320042
:1036E000A5F52500800AEB000430A100C55E250089
:1036F000800AEB000450A10044AF8A00E65E25007A
:10370000348B280010000900345B7800640020002E
:1037100054AF8A008B5E25000A022000E484450035
:103720008D5620006C0825002CFF37000608AB00E2
:1037300025FF3200A4F52500000AEB0044AF82000B
:103740000430A100C55E2500800AEB000450A100F2
:1037500044AF8A00E45E2500358A28000F00090086
:10376000355A78005400200054AF8A008B5E250043
:103770000A022000E48445008D5620006C082500D4
:1037800016FF37000608AB000FFF3200A4F5250036
:10379000000AEB00C45E2500000AEB004442220050
:1037A0004502200074AF8A0085AF8A0044002000E3
:1037B00054AF8A0054FD2F0045AF8200048262009E
:1037C00044AF8A008080EB00D0FB2F00E2040200AF
:1037D0000000000040FF2F003E0402000000000037
:1037E0008B5E25000A022000E48445008D562000EF
:1037F0006C082500F9FE370040AF82000000D100C0
:1038000061426000F0FE32008080EB00D0FB2F00B0
:10381000E20402000000000040FF2F003E0402000E
:1038200000000000A45E2500140AE8008B5E25005D
:103830000A022000E48445008D5620006C08250013
:10384000E6FE370044AF8200C322DE00E1C2620020
:10385000DDFE3200A5F52500800AEB000430A10052
:10386000C55E2500800AEB000450A10044AF8A0029
:10387000E45E2500659428001E000900355A780092
:10388000E400200054AF8A008B5E25000A0220006D
:10389000E48445008D5620006C082500CFFE3700DB
:1038A00044AF8200C322DE00E1C26200C6FE3200E5
:1038B000A5F52500800AEB000430A100C55E2500B7
:1038C000800AEB000450A10044AF8A00E55E2500A9
:1038D000969228001C000900B65A7800D4002000F7
:1038E00054AF8A008B5E25000A022000E484450064
:1038F0008D5620006C082500B8FE370044AF8200CA
:10390000C322DE00E1C26200AFFE3200A5F5250051
:10391000800AEB000430A100C55E2500800AEB00A0
:103920000450A10044AF8A00E65E2500949128006F
:103930000F000900345B7800C400200054AF8A00F7
:103940008B5E25000A022000E48445008D5620008D
:103950006C082500A1FE370044AF82004322DE0040
:103960006142620098FE3200C6F525000F00090092
:10397000001BEB007465240035252300E4FA8A005F
:10398000F5FA8A001403230004FB8A0024F62500BC
:10399000004AEB002800260024002600859028001D
:1039A00010000900355A7800C1F52500080078009C
:1039B000F606020000000000080078004A07020036
:1039C0000000000000024400D5C0B300055A780092
:1039D000A5C0B300055A7800004AEB00A4F5250005
:1039E000000AEB0044AF82000430A100C55E250050
:1039F000800AEB000450A10044AF8A0088007800E0
:103A00000580E8003A07020000000000B400200032
:103A100054AF8A008B5E25000A022000E484450032
:103A20008D5620006C0825006CFE370044AF8200E4
:103A30004322DE006142620063FE3200C6F72500C9
:103A40000F000900001BEB007465240035252300DE
:103A5000E4FB8A00F5FB8A001403230035372600B7
:103A600004FC8A0015FC8A00F40627005506200095
:103A700024FC8A0035FC8A00280026002400260049
:103A8000758F280010000900355A7800C1F725000D
:103A900008007800F6060200000000000800780028
:103AA0004A0702000000000000024400D5C0B30035
:103AB000055A7800A5C0B300055A7800004AEB000B
:103AC000A4F52500000AEB0044AF82000430A100F9
:103AD000C55E2500800AEB000450A10044AF8A00B7
:103AE000880078000580E8003A0702000000000026
:103AF000A400200054AF8A008B5E25000A0220003B
:103B0000E48445008D5620006C08250033FE370004
:103B100044AF8200C322DE00E1C262002AFE32000E
:103B200025FB2500800AEB008505B100800AEB002B
:103B30000430A100C55E2500800AEB000450A100FE
:103B400044AF8A00E45E2500558E2800110009006C
:103B5000355A78009400200054AF8A008B5E25000F
:103B60000A022000E48445008D5620006C082500E0
:103B70001AFE370044AF82004322DE006142620039
:103B800011FE3200C4F525000F000900001AEB00F9
:103B90007465240035252300E4FA8A00F5FA8A00CA
:103BA0001403230004FB8A0024F62500004AEB00DE
:103BB0002800260025002600668D28000E0009003A
:103BC000B65A7800E600520008007800F6060200B7
:103BD00000000000080078004A0702000000000012
:103BE00000024400D5C0B300055A7800A5C0B30058
:103BF000055A7800004AEB00A4F52500000AEB0006
:103C000044AF82000430A100C55E2500800AEB00AD
:103C10000450A10044AF8A00880078000580E800C5
:103C20003A070200000000008400200054AF8A0020
:103C30008B5E25000A022000E48445008D5620009A
:103C40006C082500E5FD370044AF8200C322DE008A
:103C5000E1C26200DCFD3200A5F52500800AEB0020
:103C60000430A100C55E2500800AEB000450A100CD
:103C700044AF8A00E55E2500468C2800110009004B
:103C8000B65A78007400200054AF8A008B5E25007D
:103C90000A022000E48445008D5620006C082500AF
:103CA000CEFD370008002200A400210014046400A7
:103CB0003504320044AF82000400A1000420A000BB
:103CC00044AF8A00A45E2500000AEB00A4F525009D
:103CD000000AEB008A030200000000008B5E250052
:103CE0000A022000E48445008D5620006C0825005F
:103CF000BAFD37000608AB00B3FD320052012000C8
:103D0000D175290090602C002E05020000000000F3
:103D100034AEA8008080EB00D0FB2F00E20402004C
:103D20000000000040FF2F003E04020000000000E1
:103D3000E401200054AF8A008B5E25000A022000B7
:103D4000E48445008D5620006C082500A3FD370053
:103D500044AF8200C322DE00E1C262009AFD32005D
:103D60000410A10044AF8A0034AEA90040A525008C
:103D7000FA69020000000000E06425003A670200D2
:103D800000000000A4F52500000AEB001405020065
:103D9000000000008080EB00D0FB2F00E204020056
:103DA0000000000040FF2F003E0402000000000061
:103DB000A45E2500140AE8008B5E25000A0220009C
:103DC000E48445008D5620006C08250083FD3700F3
:103DD00044AF8200C322DE00E1C262007AFD3200FD
:103DE000A5F52500800AEB000430A100C55E250082
:103DF000800AEB000450A10044AF8A00341726006B
:103E00006557260074AF8A0085AF8A00D4A02000D1
:103E100094AF8A00445F2500004AEB00B401200003
:103E200054AF8A008B5E25000A022000E48445001E
:103E30008D5620006C08250068FD370044AF8200D5
:103E40004322DE00614262005FFD3200510020002B
:103E500081FD8A00280026002400260025A62800CF
:103E600011000900355A780008007800010F780029
:103E70004A0702000000000008004000A2002000E5
:103E800051002000980602000000000008007800A1
:103E90004A0702000000000000024400D5C0B30041
:103EA000055A7800A5C0B300055A7800004AEB0017
:103EB000A4F52500000AEB0044AF82000430A10005
:103EC000C55E2500800AEB000450A10044AF8A00C3
:103ED000880078000580E8003A0702000000000032
:103EE000A45E2500140AE8008B5E25000A0220006B
:103EF000E48445008D5620006C08250037FD37000E
:103F000044AF8200C322DE00E1C262002EFD320017
:103F1000A5F52500800AEB000430A100C55E250050
:103F2000800AEB000450A10044AF8A00E55E250042
:103F300006A5280011000900B65A78009401200057
:103F400054AF8A008B5E25000A022000E4844500FD
:103F50008D5620006C08250020FD370044AF8200FC
:103F6000C322DE00E1C2620017FD3200A5F5250084
:103F7000800AEB000430A100C55E2500800AEB003A
:103F80000450A10044AF8A00E65E250094A32800F7
:103F900016000900345B78008401200054AF8A00C9
:103FA0008B5E25000A022000E48445008D56200027
:103FB0006C08250009FD370044AF8200C322DE00F3
:103FC000E1C2620000FD3200A5F52500800AEB0089
:103FD0000430A100C55E2500800AEB000450A1005A
:103FE00044AF8A00E45E250035A2280015000900D0
:103FF000355A78007401200054AF8A008B5E25008A
:104000000A022000E48445008D5620006C0825003B
:10401000F2FC370044AF8200C322DE00E1C262003E
:10402000E9FC3200A5F52500800AEB000430A10070
:10403000C55E2500800AEB000450A10044AF8A0051
:10404000E55E2500E6A0280014000900B65A7800B5
:104050006401200054AF8A008B5E25000A02200014
:10406000E48445008D5620006C082500DBFC3700F9
:1040700044AF8200C322DE00E1C26200D2FC320003
:10408000A5F52500800AEB000430A100C55E2500DF
:10409000800AEB000450A10044AF8A00E65E2500D0
:1040A000C49F280011000900345B780054012000EF
:1040B00054AF8A008B5E25000A022000E48445008C
:1040C0008D5620006C082500C4FC370044AF8200E8
:1040D000C322DE00E1C26200BBFC3200A5F5250070
:1040E000800AEB000430A100C55E2500800AEB00C9
:1040F0000450A10044AF8A00E45E2500159E28000C
:104100001A000900355A78004401200054AF8A0093
:104110008B5E25000A022000E48445008D562000B5
:104120006C082500ADFC370044AF8200C322DE00DE
:10413000E1C26200A4FC3200A5F52500800AEB0074
:104140000430A100C55E2500800AEB000450A100E8
:1041500044AF8A00E55E2500369C28001D0009005A
:10416000B65A78003401200054AF8A008B5E2500D7
:104170000A022000E48445008D5620006C082500CA
:1041800096FC370044AF8200C322DE00E1C2620029
:104190008DFC3200A5F52500800AEB000430A1005B
:1041A000C55E2500800AEB000450A10044AF8A00E0
:1041B000E65E2500F49A280013000900345B7800BD
:1041C0002401200054AF8A008B5E25000A022000E3
:1041D000E48445008D5620006C0825007FFC3700E4
:1041E00044AF8200C322DE00E1C2620076FC3200EE
:1041F000A5F52500800AEB000430A100C55E25006E
:10420000800AEB000450A10044AF8A00E45E250060
:10421000A599280014000900355A780014012000DF
:1042200054AF8A008B5E25000A022000E48445001A
:104230008D5620006C08250068FC370044AF8200D2
:10424000C322DE00E1C262005FFC3200A5F525005A
:10425000800AEB000430A100C55E2500800AEB0057
:104260000450A10044AF8A00E55E2500269828008E
:1042700017000900B65A78000401200054AF8A00E4
:104280008B5E25000A022000E48445008D56200044
:104290006C08250051FC37008403200054AF8A00CD
:1042A0008B5E25000A022000E48445008D56200024
:1042B0006C08250049FC3700E402200054AF8A0056
:1042C0008B5E25000A022000E48445008D56200004
:1042D0006C08250041FC37000608AB003AFC3200B0
:1042E000A4F52500000AEB00C45E2500000AEB00DF
:1042F000444222004502200074AF8A0085AF8A0044
:10430000D402200054AF8A0054FD2F0045AF820034
:104310000482620044AF8A008080EB00D0FB2F0053
:10432000E20402000000000040FF2F003E040200F3
:10433000000000008B5E25000A022000E484450096
:104340008D5620006C08250024FC370040AF820009
:104350000000D100614260001BFC32008080EB0055
:10436000D0FB2F00E20402000000000040FF2F00FD
:104370003E04020000000000A45E2500140AE800CC
:104380008B5E25000A022000E48445008D56200043
:104390006C08250011FC370008002200A400210051
:1043A000140464009002320044AF82000400A100B3
:1043B0000420A00044AF8A00A45E2500000AEB00A0
:1043C000A4F52500000AEB008A03020000000000AB
:1043D0008B5E25000A022000E48445008D562000F3
:1043E0006C082500FDFB370044AF82008402D10039
:1043F000E1C26200F4FB32000400A1000420A0002E
:1044000044AF8A00A45E2500000AEB00A4F5250055
:10441000000AEB008A030200000000008B5E25000A
:104420000A022000E48445008D5620006C08250017
:10443000EAFB370044AF8200C322DE00E1C2620023
:10444000E1FB32000410A10044AF8A0034AEA900A1
:1044500000C4290001002000326C020000000000AE
:1044600040A52500FA69020000000000E064250074
:104470003A6702000000000044AF82000410A1006F
:1044800044AF8A00A4F52500000AEB0034AEA80072
:10449000A45E2500140AE8008B5E25000A022000B5
:1044A000E48445008D5620006C082500CBFB3700C6
:1044B00044AF8200C322DE00E1C26200C2FB3200D0
:1044C000A5F52500800AEB000430A100C55E25009B
:1044D000800AEB000450A10044AF8A003417260084
:1044E0006557260074AF8A0085AF8A00D4A02000EB
:1044F00094AF8A00445F2500004AEB00840220004C
:1045000054AF8A008B5E25000A022000E484450037
:104510008D5620006C082500B0FB370028002600CF
:104520002600260024A6280011000900345B78002C
:10453000080078004A070200000000000800400060
:10454000A200200081FD8200980602000000000009
:10455000080078004A070200000000000002440042
:10456000D5C0B300055A7800A5C0B300055A78003D
:10457000004AEB00A4F52500000AEB0044AF8200DE
:104580000430A100C55E2500800AEB000450A100A4
:1045900044AF8A00880078000580E8003A070200EE
:1045A00000000000A45E2500140AE8008B5E2500D0
:1045B0000A022000E48445008D5620006C08250086
:1045C00086FB370044AF82008402D100E1C2620062
:1045D0007DFB32000400A1000420A00044AF8A004B
:1045E000A45E2500000AEB00A4F52500000AEB00FC
:1045F0008A030200000000008B5E25000A022000F2
:10460000E48445008D5620006C08250073FB3700BC
:10461000A4F52500000AEB00C45E2500000AEB00AB
:1046200054FD2F0045AF82000482620044AF8A002F
:104630002457260025F6260074AF8A0085AF8A002D
:10464000F4462700D5A0200094AF8A00A5AF8A00C9
:10465000645F2500004AEB005402200054AF8A003A
:104660008B5E25000A022000E48445008D56200060
:104670006C08250059FB370044AF82004422DE005D
:104680006142620050FB320045FB25002600090014
:10469000801AEB0004F82F00B4FD8A00E4FD8A00C4
:1046A00014FE8A0044FE8A0074FE8A00A4FE8A007A
:1046B000D4FE8A0004FF8A0034FF8A0064FF8A0067
:1046C00094FF8A00C4FF8A00F4FF8A00A4F5250045
:1046D000000AEB00C45E2500000AEB0074FC2F000A
:1046E00045AF82000482620044AF8A00343726005E
:1046F00015E6260074AF8A0085AF8A00D4A020009A
:1047000094AF8A00445F2500004AEB003402200089
:1047100054AF8A008B5E25000A022000E484450025
:104720008D5620006C0825002CFB37000608AB00D6
:1047300025FB3200A4F52500000AEB0044AF8200FF
:104740000430A100C55E2500800AEB000450A100E2
:1047500044AF8A00E65E250044A728000A0009004D
:10476000345B78001402200054AF8A008B5E250071
:104770000A022000E48445008D5620006C082500C4
:1047800016FB37000608AB000FFB3200A4F525002E
:10479000000AEB00C45E2500000AEB004442220040
:1047A0004502200074AF8A0085AF8A000402200011
:1047B00054AF8A0054FD2F0045AF8200048262008E
:1047C00044AF8A008080EB00D0FB2F00E20402009F
:1047D0000000000040FF2F003E0402000000000027
:1047E0008B5E25000A022000E48445008D562000DF
:1047F0006C082500F9FA370044AF8200C322DE00BE
:10480000E1C26200F0FA3200A5F52500800AEB0053
:104810000430A100C55E2500800AEB000450A10011
:1048200044AF8A003437260015E6260074AF8A00AC
:1048300085AF8A00D4A0200094AF8A00445F250091
:10484000004AEB002402200054AF8A008B5E250052
:104850000A022000E48445008D5620006C082500E3
:10486000DEFA3700F402200054AF8A008B5E250088
:104870000A022000E48445008D5620006C082500C3
:10488000D6FA370034AEA90000C429000100200088
:10489000326C02000000000040A52500FA69020009
:1048A00000000000E06425003A67020000000000FC
:1048B00044AF82000410A10044AF8A00A4F5250093
:1048C000000AEB0034AEA800A45E2500140AE8003C
:1048D0008B5E25000A022000E48445008D562000EE
:1048E0006C082500BDFA370044AF82008402D10075
:1048F000E1C26200B4FA32000400A1000420A0006A
:1049000044AF8A00A45E2500000AEB00A4F5250050
:10491000000AEB008A030200000000008B5E250005
:104920000A022000E48445008D5620006C08250012
:10493000AAFA370044AF8200C322DE00E1C262005F
:10494000A1FA32000410A10044AF8A0034AEA900DD
:1049500000C4290001002000326C020000000000A9
:1049600040A52500FA69020000000000E06425006F
:104970003A6702000000000044AF82000410A1006A
:1049800044AF8A00A4F52500000AEB0034AEA8006D
:10499000A45E2500140AE8008B5E25000A022000B0
:1049A000E48445008D5620006C0825008BFA370002
:1049B00044AF8200C322DE00E1C2620082FA32000C
:1049C000A5F52500800AEB000430A100C55E250096
:1049D000800AEB000450A10044AF8A00341726007F
:1049E0006557260074AF8A0085AF8A00D4A02000E6
:1049F00094AF8A00445F2500004AEB00B403200016
:104A000054AF8A008B5E25000A022000E484450032
:104A10008D5620006C08250070FA3700A403200092
:104A200054AF8A008B5E25000A022000E484450012
:104A30008D5620006C08250068FA3700940320008A
:104A400054AF8A008B5E25000A022000E4844500F2
:104A50008D5620006C08250060FA370044AF8200B4
:104A60004322DE006142620057FA3200280026002D
:104A70002600260024A6280011000900345B7800D7
:104A8000080078004A07020000000000080040000B
:104A9000A200200081FD82009806020000000000B4
:104AA000080078004A0702000000000000024400ED
:104AB000D5C0B300055A7800A5C0B300055A7800E8
:104AC000004AEB00A4F52500000AEB0044AF820089
:104AD0000430A100C55E2500800AEB000450A1004F
:104AE00044AF8A00880078000580E8003A07020099
:104AF00000000000A45E2500140AE8008B5E25007B
:104B00000A022000E48445008D5620006C08250030
:104B100032FA37000608AB002BFA320028002600D4
:104B200025002600668D28000E000900B65A780080
:104B3000C1F5250008007800F6060200000000001C
:104B4000080078004A07020000000000000244004C
:104B5000D5C0B300055A7800A5C0B300055A780047
:104B6000004AEB00A4F52500000AEB0044AF8200E8
:104B70000430A100C55E2500800AEB000450A100AE
:104B800044AF8A00880078000580E8003A070200F8
:104B9000000000005403200054AF8A008B5E250003
:104BA0000A022000E48445008D5620006C08250090
:104BB0000AFA37002403200054AF8A008B5E2500D8
:104BC0000A022000E48445008D5620006C08250070
:104BD00002FA37001403200054AF8A008B5E2500D0
:104BE0000A022000E48445008D5620006C08250050
:104BF000FAF937000403200054AF8A008B5E2500C9
:104C00000A022000E48445008D5620006C0825002F
:104C1000F2F93700F1A7280000FA25002807020062
:104C200000000000E00F500039003A00640320004B
:104C300054AF8A008B5E25000A022000E484450000
:104C40008D5620006C082500E4F937000608AB00FB
:104C5000DDF93200A4F52500000AEB0044AF820024
:104C60000430A100C55E2500800AEB000450A100BD
:104C700044AF8A0034C726005556260074AF8A0018
:104C800085AF8A0004D72000A500200094AF8A00D9
:104C9000A5AF8A001404200054AF8A008B5E250063
:104CA0000A022000E48445008D5620006C0825008F
:104CB000CAF9370044AF8200C322DE00E1C26200BD
:104CC000C1F93200A5F52500800AEB000430A100EF
:104CD000C55E2500800AEB000450A10044AF8A00A5
:104CE000E65E2500549628001C000900345B78001D
:104CF000F400200054AF8A008B5E25000A022000D9
:104D0000E48445008D5620006C082500B3F9370077
:104D100044AF82004322DE0061426200AAF9320001
:104D20002800260024002600859028001000090095
:104D3000355A7800C1F5250008007800F606020013
:104D400000000000080078004A0702000000000090
:104D500000024400D5C0B300055A7800A5C0B300D6
:104D6000055A7800004AEB0008007800E6F60700D4
:104D70008B5E25000A022000E48445008D56200049
:104D80006C08250095F9370034AEA90000C429004D
:104D900001002000326C02000000000040A5250048
:104DA000FA69020000000000E06425003A67020092
:104DB0000000000044AF82000410A10044AF8A004C
:104DC000D8FA8A0034AEA800A45E2500140AE800D0
:104DD0008B5E25000A022000E48445008D562000E9
:104DE0006C0825007DF9370034AEA90000C4290005
:104DF00001002000326C02000000000040A52500E8
:104E0000FA69020000000000E06425003A67020031
:104E10000000000044AF82000410A10044AF8A00EB
:104E2000D8FA8A0034AEA800A45E2500140AE8006F
:104E30008B5E25000A022000E48445008D56200088
:104E40006C08250065F93700A45E2500140AE80007
:104E50008B5E25000A022000E48445008D56200068
:104E60006C0825005DF937000000FA00889FBE003D
:104E70008A9FBE00845E25001402780061026200F1
:104E800043003A0054868200E00F520007003A00C7
:104E900054AF8200A5022000850F5200420032006C
:104EA000F3824200850F52003F00320014A78200B7
:104EB000E00F52001B003200694E25000982E90014
:104EC000140278001904520024462000040444000F
:104ED00064082500040444000605020000000000E8
:104EE000E04F50000F003A0034A78200E00F52005C
:104EF0000C003200384278000480FB0050050200AC
:104F0000000000001902E90034A78A00F2FF3A000D
:104F100024A78A000605020000000000E04F5000B0
:104F2000F1FF320004002800957080000502620045
:104F3000E00F520006003A0054868A0074868A0008
:104F40004F05BE004F04BE000080FA0000000600BE
:104F50000605020000000000E04F5000F8FF3A0094
:104F6000548682000500200061025200E0825A004F
:104F7000E30F5200E08F5A00F1FF3E0004060100EB
:104F800026003700170037000B00370036003700C7
:104F9000A40C2500000AEB0064024200000AEB00AA
:104FA000ADF80700C1FF370044AF82000400A00045
:104FB00044AF8A00BDFF37000668AB00E0FF320057
:104FC0009603020000000000A40C2500140AE8006B
:104FD0004F05BE004F04BE000080FA00000006002E
:104FE000DBFF37000100280050F92F00EE0402001B
:104FF0000000000040FF2F006004020000000000DD
:10500000A40C2500140AE8004F05BE004F04BE00A2
:105010000080FA0000000600CDFF3700C80C250014
:1050200066024400140278009804520064024400AE
:10503000848444000605020000000000E04F500098
:1050400033003A0064868200E00F5200DEFF320037
:10505000394278000480FB00500502000000000087
:10506000180CE900F3FF37007B86820094868200EB
:10507000848F55002E003600720252008485550040
:105080007B868A00450D2500950A420024412000B8
:10509000848F55002F00360094868A000B41200033
:1050A000A8402000094020004A86820009017800BB
:1050B0008A007800000E2500D206020000000000E1
:1050C000840C2500090A4500EE04420089044400CE
:1050D0008B00780068004200126C020000000000A3
:1050E000804C7800A4C0B3009444980014002000C1
:1050F00054868A009586820065868A004F05BE0028
:105100004F04BE000080FA000000060090FF370048
:1051100064868200E00F5200ABFF32004F05BE00F4
:105120004F04BE000080FA000000060088FF370030
:10513000E40C2500000AEB0064025200000AEB00B8
:105140004F05BE004F04BE000080FA0000000600BC
:105150007FFF37009B868A00F284550068845500E3
:105160008B85E9004A868200090178008A00780070
:10517000000E2500D206020000000000840C25006D
:10518000090A4500EE044200890444008B007800BF
:1051900068004200126C020000000000804C7800A1
:1051A000A4C0B300944498001400200054868A00E0
:1051B0009586820065868A00D0FF37000000FA00DD
:1051C00061F5070028FF07000080FA0000000600D4
:1051D0000000FA002AC8A900F40F20002426880045
:1051E00004268800E024EF00E224EF00E424EF002E
:1051F000DC24EF00F40920003426880014268800FF
:105200009004A80004C026004822DE00742688000E
:105210006022B8006033B80004608B0015608B001A
:1052200026608B0037608B0044608B0055608B00DC
:1052300066608B0077608B0084608B0095608B00CC
:10524000A6608B00B7608B00C4608B00D5608B00BC
:10525000E6608B00F7608B0004618B0015618B00AA
:1052600026618B0037618B0044618B0055618B0098
:1052700066618B0077618B0084618B0095618B0088
:10528000A6618B00B7618B00C4618B00D5618B0078
:10529000E6618B00F7618B0004628B0015628B0066
:1052A00026628B0037628B0044628B0055628B0054
:1052B00066628B0077628B0084628B0095628B0044
:1052C000A6628B00B7628B00C4628B00D5628B0034
:1052D000E6628B00F7628B00CA24A800CC24EF00A2
:1052E000CAA4A900CA24A900C064AB000D00320002
:1052F00085002000052688000426800068026200E0
:10530000FCFF3A0085A92600844A7800C5AA260039
:10531000844A78008502E800844A78008502E80023
:10532000844A78001400200084568B0094568B0029
:105330000002EB00A4548B0084548B00F4548B00C7
:1053400024558B0085AC2600844A7800B5AC260035
:10535000844A7800A4558B0034558B0095AC260008
:10536000844A7800C5AC2600844A7800B4558B0086
:1053700044558B00A5AC2600844A7800D5AC2600A5
:10538000844A780005C1260095558B00D500200081
:105390000527880045AD260025608B001660830038
:1053A00005C02F00850263000530A00015608B004A
:1053B0004508200005608B0025AA2600844A780055
:1053C00004558B000080FA00000006000E00FA0071
:1053D000889FBE008A9FBE008C9FBE006424800010
:1053E000610262007001320004558300E00F520038
:1053F00013013A005426880014268800E426880009
:10540000F40920003426880014268800CA04AB0062
:1054100003003A00CA04A800CA04AB00FDFF320032
:10542000F40F200004268800C224EF00C204A80064
:10543000C284A8002400200004558B008884AB009F
:10544000020032008A84AB0098013A009024AB003D
:105450004F013A00C004AB0007003200C204AB00A9
:10546000050032005AFF07004400200004558B005D
:105470001400200004268800C084AB000D00320018
:10548000C284AB000B0032008A84A800080120000F
:105490000826880014002000F4548B000001EB0063
:1054A0008000EB0050072000405C0200000000007C
:1054B00008268800C044AB000B003200C244AB0099
:1054C00085013A004400200004268800E4AC260050
:1054D00094427800E0CF52003D0132008542E9005D
:1054E000054A78003A013200C0E4AB0010003200F7
:1054F000C2E4AB000E003200E024AB000A00320030
:10550000D4558300144078008082FB00144390003F
:105510004833DD000503730005082000850F5300A4
:1055200089023200E024A900040820000426880033
:10553000C024AB000B003200C224AB0009003200D3
:10554000120020008000EB00F0FF2700405C02000A
:1055500000000000F40F2000242688002400200012
:105560000426880004558300E30F5200080136002A
:10557000C264AB000601320048C0B300C9AD2600CA
:1055800009017800F20FB20012079800C849DE0046
:10559000030F78004AAD26000A027800F40FB2002B
:1055A00034079800C064AB00F90032004426800044
:1055B0008443780045AC2600844A78008482FB004E
:1055C000C42ADE000543780050AC26000548780068
:1055D000850020000526880068426200E2013A004A
:1055E0000682FB00B5AC2600048242001446780017
:1055F000E14266000504A2000C4078000004A1000E
:10560000054A7000E04F5300E1013A00D5C2B300F3
:10561000E4AC2600054A78000782FB00840378008A
:105620000720A100E08F5300E1013A004222DE0092
:10563000C322DD000CC0260005024600D4558B00B5
:10564000E4558B00C0AB2600844078000134A200F2
:1056500001487800C2C3B3001440610044C3B300E2
:10566000844F5000A4033A006482420004024600C2
:1056700014007800104D78006400460005004000DA
:105680001408E8009402780051AD2600954878008F
:105690001408E800940278008101E8009549780038
:1056A0001408E800940278000181E80015497800A8
:1056B0001408E80014017800E3824000924A780060
:1056C0001408E800940178006481400013497800D0
:1056D0001408E80014017800E58140009249780040
:1056E0001408E80014017800E6814000924978002F
:1056F0001408E8000A087800E4AB260024079800A4
:10570000074A780097548B00A7548B0087548B006E
:1057100037568B000BAC2600864D780020AB260058
:1057200094558300144178008281FB00144190005D
:105730004811DD0003017100944178008241780036
:105740000374A100034A78004811DE0094419000E0
:10575000124298001034A20094558300144178003E
:105760008281FB00144190004811DD0003017100AB
:1057700094417800824178000374A100034A7800C4
:105780004811DE0094419000124298001034A200AB
:10579000E4558300144178008281FB00144190009D
:1057A0004811DD00030171009441780082417800C6
:1057B0000374A100034A78004811DE009441900070
:1057C0001242980084A92600064A7800D7548B001C
:1057D000CDAA2600864E78008D03E800864B78001F
:1057E0008D83E800864B780007C6B3001AC36300B8
:1057F00044013A00114378000683FB0007002000B3
:10580000EB0F5300E08F5B003E013E0006060100F7
:10581000EC023700BC0037003A013700BA0037000D
:1058200038013700110337004E023700BD02370040
:10583000B30237007D02370065023700CC02370023
:10584000E10F5200FDFE3A00F40F2000042688000C
:10585000C224EF00C204A800C284A80024002000D3
:1058600004558B00F5FE370024C0B300844D78004A
:10587000E4558300A443900081C0B3002142980006
:1058800034409000C7CFB30007406000304298001A
:10589000444090006E409000404298004850DE0026
:1058A00054419000504298001441780042C8B3001F
:1058B000024A780094419000154298008002EB0063
:1058C00095568B0085568B0095548300E08F5200CF
:1058D0002D003A0085568300E08F52002A003A00DE
:1058E0001B0020008B568B0093568300E08F5100E5
:1058F00025003A009B568B0005AC260095427800A7
:10590000E2CF52008A043200E1CF52001E003A007A
:10591000D555830025469000A14298003546900059
:1059200007466600BC429800454690006E469000CF
:10593000CC42980055469000D04298001546780019
:10594000824A780015419000934298003B568B00A4
:10595000A442900021429800B442900087C36200A4
:1059600037429800C4429000EE40900041429800B7
:10597000D44290005042980094427800064A780041
:1059800094429000134298000844E90005FF3A0051
:105990000AC8A9004F06BE004F05BE004F04BE0056
:1059A0000080FA00000006005426880014268800B3
:1059B00004558B000AC8A9004F06BE004F05BE0063
:1059C0004F04BE000080FA0000000600F6FF37001A
:1059D00084568300E00F5200C3FE3A0014002000FA
:1059E00084568B0095568300E08F5200BEFE3A002D
:1059F00094568B0006AC260016437800E24F530005
:105A0000B2033200E14F5300B7FE3A00D65583008F
:105A1000A643900082C0B30022439800B643900092
:105A2000C1CFB30081C363003743980047AD260060
:105A300007007800F00FB200C64190004043980084
:105A4000C83BDE00D641900057439800964178004D
:105A500043C8B300034B780096419000154398006B
:105A600034568B00E4558300244390002242980072
:105A700034439000814063003142980044439000D9
:105A800040429800544390005742980014437800D5
:105A900006C8B300064A78001443900015429800E7
:105AA000C0E4AB00A2FE320091FE370008012000E6
:105AB000482488000001EB00F2548B00820078003B
:105AC00040072000405C0200000000008A84A9001A
:105AD000482488005DFE3700120020008000EB00A3
