:100000000002040000000000CC020000CC0200004E
:10001000CC020000CC020000CC020000CC020000A8
:10002000CC020000CC020000CC02000068370000C7
:10003000CC020000CC020000CC020000CC02000088
:10004000CC020000CC020000F62F0000CC02000021
:10005000CC020000CC020000CC020000CC02000068
:10006000CC020000CC020000CC020000CC02000058
:10007000CC020000CC020000762E0000CC02000072
:10008000CC020000CC020000CC020000CC02000038
:10009000CC020000CC020000B8300000362F000077
:1000A000CC020000CC020000CC020000CC02000018
:1000B000CC020000CC020000CC0200009A37000005
:1000C000CC020000CC020000CC020000CC020000F8
:1000D000CC020000CC020000CC020000CC020000E8
:1000E000CC020000CC370000CC020000CC020000A3
:1000F000CC020000CC020000CC020000CC020000C8
:10010000CC020000CC020000CC020000CC020000B7
:10011000CC020000CC020000CC020000CC020000A7
:10012000CC020000CC020000CC020000CC02000097
:10013000CC020000CC020000CC020000CC02000087
:10014000CC020000CC020000CC020000CC02000077
:10015000CC020000CC020000CC020000CC02000067
:10016000CC020000CC020000CC020000CC02000057
:10017000CC020000CC020000CC020000CC02000047
:10018000CC020000CC020000CC020000CC02000037
:10019000CC020000CC020000CC020000CC02000027
:1001A000CC020000CC020000CC020000CC02000017
:1001B000CC020000CC020000CC020000CC02000007
:1001C000CC020000CC020000CC020000CC020000F7
:1001D000CC020000CC020000CC020000CC020000E7
:1001E000CC020000CC020000CC020000CC020000D7
:1001F000CC020000CC020000CC020000CC020000C7
:10020000CC020000CC020000CC020000CC020000B6
:10021000CC020000CC020000CC020000CC020000A6
:10022000CC020000CC020000CC020000CC02000096
:10023000CC020000CC020000CC020000CC02000086
:10024000CC020000CC020000CC020000CC02000076
:10025000CC020000CC020000CC020000CC02000066
:08026000CC020000CC020000FA
:100400000FC626000EFF27000E0188000000000026
:1004100000012000200288000C000700A05C2400DE
:10042000010020000F000700000020000000E00095
:10043000020032000000020000000000FA43020047
:10044000000000000040DA000000FE00003920003B
:100450000000E0000200320000202000900188002F
:1004600000000600A1028800800078000000EB0078
:100470001A003700E280400054A0B4009101BA0095
:10048000E280400054A0B4009102BA00E280400033
:1004900054A0B4000002EB00472BDE00F507B200C9
:1004A000A6018800602CE10008003A000049EB003A
:1004B0000201E800020039003420EC0002F0A00044
:1004C0008301E900F9FF3E00040037006128E100E4
:1004D000010032000082EB00040007001101BA00A5
:1004E0000200E000E3FF3A000000060004D0A30091
:1004F000E20F49001C003900810278003549BA003A
:100500000201E800020039003420EC0002F0A000F3
:100510008301E9000F0032002549BA000201E8001A
:10052000020039003420EC0002F0A0008301E90051
:10053000080032000400E0000600320015C9BA00CD
:100540000201E800020039003420EC0002F0A000B3
:100550008301E9008180E80054A0B4000300E000BA
:10056000E2FF3A00000006009102BA000559780047
:100570008301E900F7FF3200C82ADE000559780040
:100580008301E900F3FF32000400E000F1FF3200D4
:1005900011D9BA00EEFF37000040DA000000FE007B
:1005A000800078001106B100030035009101B10010
:1005B00001003C000050A100000006000000FA000D
:1005C0000048A900E7026000C82ADD00F48F2F0070
:1005D00006428000060262000502720004428800A2
:1005E000680060004300DE00610060004200DD0042
:1005F000B4FF2F0005418000050262000002720076
:10060000044188000080FA00000006000000FA00A3
:1006100000C8A900E7026000C82ADD00F48F2F009F
:100620001642800006026200050272001442880031
:10063000680060004300DE00610060004600DD00ED
:10064000F4FB2F00054180000502620000027200E9
:10065000044188000080FA00000006000000FA0053
:100660000328A900E7026000C42ADD00F4F82F0087
:100670006642800006026200050272006442880041
:10068000680060004300DE00610060004900DD009A
:10069000F4DF2F00154180000502620000027200A5
:1006A000144188000080FA00000006000000FA00F3
:1006B00020E8A90011E1A90000E8A9000080FA00E3
:1006C000000006000000FA002108A90013E1A900BB
:1006D0000108A9000080FA00000006000000FA00EE
:1006E0002388A9001E61AB00010032001FE1A900B0
:1006F0000388A9000080FA00000006000000FA004C
:1007000025E8A9002DE1A90005E8A9000080FA006C
:10071000000006000000FA002608A9002FE1A90049
:100720000608A9000080FA00000006000000FA0098
:100730002668A9003BE1A9000668A9000080FA002C
:10074000000006000000FA0000E8A900E7026000CF
:10075000CC2ADD00F4FF2800164280000602620069
:100760000502720014428800680060004300DE0049
:10077000610060004700DD00F4F72F0005418000B4
:100780000502620000027200044188000080FA0045
:10079000000006000000FA000108A900E70260005E
:1007A00084FF2F00264280000602620005027200CC
:1007B00024428800680060004300DE0061006000A1
:1007C0004800DD00F4EF2F000541800005026200C3
:1007D00000027200044188000080FA000000060058
:1007E0000000FA000388A900E702600084FF2F00E0
:1007F00076428000060262000502720074428800A0
:10080000680060004300DE00610060004C00DD0015
:10081000F4FF2E0015418000050262000002720004
:10082000144188000080FA00000006000000FA0071
:1008300005E8A900E7026000CC2ADD00F4FF2800EB
:10084000B64280000602620005027200B4428800CF
:10085000680060004300DE00610060004F00DD00C2
:10086000F4FF2700254180000502620000027200AB
:10087000244188000080FA00000006000000FA0011
:100880000608A900E702600084FF2F00C64280002E
:100890000602620005027200C4428800680060001F
:1008A0004302DE0061026200E0FF2F002608B6006E
:1008B00004007000304188000080FA00000006004B
:1008C0000000FA000668A900E7026000CC2ADD00FB
:1008D000F4FF2800C6428000060262000502720092
:1008E000C44288006800600074FF2F00354180001A
:1008F0000502620000007200304188000080FA00AA
:10090000000006000000FA000688A900E702600067
:1009100084FF2F00D64280000602620005027200AA
:10092000D4428800680060004300DE00610060007F
:100930004400DD00F4FE2F00354180000502620016
:1009400000027200344188000080FA0000000600B6
:100950000000FA000621EF00610888008008880086
:100960001061A9000080FA00000006000000FA00F3
:100970000A21EF0071088800900888000080FA00C2
:10098000000006000000FA000002EB00A408880046
:10099000C4088800D2088800E3088800F0088800AE
:1009A0001E61A8000080FA00000006000000FA00A6
:1009B0002221EF0041098800600988000080FA00C8
:1009C000000006000000FA002621EF00510988000F
:1009D000700988000080FA00000006000000FA009C
:1009E0003021EF00B1098800D00988000080FA00AA
:1009F000000006000000FA003421EF00C109880061
:100A0000E00988000080FA00000006000000FA00FB
:100A1000001020002202B6000000E9004F00DE00B6
:100A20000080FA00000006000000FA0021E2A900A0
:100A30002168A9002188A9000168A9000188A900EE
:100A40000080FA00000006000000FA00101180008B
:100A5000614060000080FA00000006000000FA001B
:100A60004211880000118800111188000080FA00EE
:100A7000000006000000FA00041180006602620017
:100A8000E60F520002003A003011800002003700E9
:100A900030118000F00FB2000080FA000000060064
:100AA0000000FA000411800066026200E60F5200A6
:100AB00001003200F00FB200201188000080FA001F
:100AC000000006005400F8004239880050398800C0
:100AD000613988000500FC0051052000713988004B
:100AE000A10A20007139880029E7A8000000000051
:100AF000000000005400F900000006000400A100FE
:100B0000010037000400A0005400F80050398800AC
:100B100061398800A00F2000A00288000000EB00CF
:100B20002100240041398800F10F20003208BB0069
:100B30000400A700B20078000198BB002CA7EC00CD
:100B40008301E900F9FF3A00680151000400A700A1
:100B500068015100680050001208BB00DDFF37003B
:100B6000F30F20005400F8005039880061398800E4
:100B7000A102880011002400413988000208BB004E
:100B80000388BB00D3FF37005400F80040398800C9
:100B9000D0FF3700F30F2000F50F20005400F800BD
:100BA0005039880061398800A00F2000A002880019
:100BB0000000EB000208BB000398BB000408BB0068
:100BC0000598BB001100240041398800C1FF37009F
:100BD0005400F800A1028800800278006200400002
:100BE000E08048003549BA003204E0000410A70054
:100BF000100032008301E9000E0032002549BA00DE
:100C00003204E0000410A7000A0032008301E9006A
:100C1000080032000408A300EEFF320015C9BA0034
:100C20003204E0000410A700020032008301E90052
:100C3000E8FF3A005400F90000000600020AB9007B
:100C4000001BB9000200B80081004200810043008F
:100C5000000006000000FA0006C2B300000278009F
:100C600004007800B042780086CF5200FBFF3200CB
:100C7000E9CF5200F9FF3200D6C2B30086CF52004E
:100C800003003A000002780016C0B30005003700E8
:100C90000043EB00B7C2B30087CF520001003A0017
:100CA000000278000000EB0002003700EA00B80004
:100CB00000804200B402FB000503B100E98F52003E
:100CC000FAFF3600E04F5300010032000000EA0056
:100CD0000080FA00000006000000FA0080017800A1
:100CE0008103780007027800010037008501780051
:100CF000110009000282D800000278008302E80097
:100D0000E00F5200F9FF3A00844A78001100090010
:100D10008283D80080027800014278008503780041
:100D2000E94F5200010034006742420001C3B300A2
:100D300081514200E08F5200F4FF3A000300780036
:100D40000080FA00000006000000FA00881F78000A
:100D500000047800E08F500005003D000800780096
:100D6000D4C2B300045878008100EA0001003700C3
:100D700008007800D8FF0700080078004F047800CA
:100D80000080FA00000006000000FA0003003700AF
:100D90000201E900B0CF1000050032000002780027
:100DA000E00F5100FAFF3A0002007800010037001E
:100DB000040078000080FA00000006000000FA003D
:100DC0000002780002003700315A78000201E90081
:100DD000E00F5100FCFF3A000080FA00000006001E
:100DE0000000FA000002780002003700015A780083
:100DF0000201E900E00F5100FCFF3A000080FA0018
:100E0000000006000000FA0000027800840278006A
:100E1000050278000043EB00B44F1300FBFF3A00DB
:100E200031427800845A7800E04F5200FCFF3A00CB
:100E30000080FA00000006000000FA0000027800BE
:100E40000400780000027800B442780081CF52009C
:100E500003003200E0CF5200F9FF3A000000EB003F
:100E60000080FA00000006000000FA00B04278009E
:100E700031C2520002003A00E0CF5200FBFF3A00BC
:100E80000400FB000080FA00000006000000FA00E9
:100E900000027800B1427800055A7800E0CF520095
:100EA000FCFF3A000080FA00000006000000FA0093
:100EB000000278008042EB00B4CF1200FDFF3A0040
:100EC0000080EA00000042000080FA0000000600F6
:100ED0000000FA00889FBE000004BE000B0037002F
:100EE00009007800F1FF0700000178000800BE004B
:100EF00067000700E00F50000A0032000800E80019
:100F00009900FB00CCFF070000047800E00F5400BC
:100F1000040032000042EB00984F1200F0FF3A004C
:100F20000004EB00080078004F04BE000080FA00C7
:100F3000000006000000FA00889FBE000004BE000A
:100F4000E00F540003003A0048578300E00F5400BC
:100F5000150032000800BE00320007000004440003
:100F60000042EB00984F120003003A000004EB002F
:100F700048578B000C0037000800BE000E00070029
:100F80000000440040578B000042EB00904F1200DD
:100F9000030032000058EB0040578B00020037007E
:100FA0000002EB0044578B00080078004F04BE009D
:100FB0000080FA00000006000000FA00889FBE00D2
:100FC0008A9FBE008C9FBE00810578000005EB0063
:100FD0006044B8006106B8000200370061044400B4
:100FE000E0844C000C02450094407800E0CF5000B3
:100FF000060032008100FB000B0078008EFF070026
:101000000A05E800E00F5000F4FF32000800BE00BF
:101010004F06BE004F05BE004F04BE000080FA0020
:10102000000006000000FA00889FBE008A9FBE00F4
:101030008C9FBE00810578000005EB006044B8007D
:101040006106B8000200370061044400E0844C00EF
:101050000C02450094407800E0CF500006003200BA
:101060008100FB000B00780073FF07000A05E80011
:10107000E00F5000F4FF3A000800BE004F06BE002B
:101080004F05BE004F04BE000080FA0000000600BD
:101090000000FA000B00370030427800E04F5200A9
:1010A000030032000201E900B14F52000500320096
:1010B0000480FB00954278008582FB00050050000B
:1010C0000400370081027800E00F5100F2FF3A007F
:1010D000020078000080FA00000006005746000079
:1010E000533200003130000000570000465300002A
:1010F0003231000030730000636F00007065000043
:101100000031000037300000380000003E000000D1
:1011100044480000435000000044000043480000E1
:10112000500000002A5200004541000044590000D0
:101130002A0000002A520000656200006F6F000064
:10114000742A0000003D00000053000053490000D5
:10115000440000000D00000043480000414E000024
:10116000005000004153000053500000485200005E
:101170004153000045000000454E000044000000BF
:101180002C00000024240000240000006661000000
:10119000637400006F720000792000005245000067
:1011A00053450000540D00000A0000007365000064
:1011B00074200000776C0000616E00002074000055
:1011C00078200000313200000D0A0000007300009A
:1011D00065740000207700006C6100006E20000044
:1011E0006A6F0000696E0000203700000D0A0000E1
:1011F0000073000065740000207700006C6100003F
:101200006E2000007373000069640000200000007D
:101210000D0A0000007300006574000020770000D4
:101220006C6100006E2000006175000074680000B1
:10123000203000000D0A00000073000065740000FB
:10124000207700006C6100006E20000070680000D4
:1012500072610000736500002000000073650000EB
:1012600074200000617000006D6F00006465000074
:101270002073000073690000642000000073000008
:1012800065740000206900007020000064680000A0
:1012900063700000203400000D0A0000007300009D
:1012A0006574000020690000702000006164000087
:1012B0006472000065730000732000003139000083
:1012C000322E000031360000382E0000312E000092
:1012D000310D00000A00000073650000742000005A
:1012E00069700000206E0000657400006D610000F0
:1012F000736B000020320000353500002E320000F4
:10130000353500002E320000353500002E3000004B
:101310000D0A0000007300006574000020690000E1
:1013200070200000676100007465000077610000B4
:101330007920000031390000322E000031360000E3
:10134000382E0000312E0000310D00000A00000090
:10135000736500007420000069700000206C0000BC
:101360006F630000616C0000706F00007274000019
:101370002032000030300000300D00000A00000074
:101380007365000074200000697000002072000086
:10139000656D00006F7400006520000032300000B1
:1013A000303000000D0A000000730000657400007A
:1013B0002069000070200000707200006F7400004F
:1013C0006F6300006F6C0000203200000D0A000007
:1013D00000730000657400002069000070200000A8
:1013E000686F000073740000203200003535000083
:1013F0002E320000353500002E3200003535000059
:101400002E320000353500000D0A00000073000088
:101410006574000020620000726F000061640000CB
:101420006361000073740000206900006E740000A6
:1014300065720000766100006C200000300D000035
:101440000A0000007365000074200000636F000054
:101450006D6D000020740000696D000065200000C3
:10146000320D00000A0000007365000074200000C7
:10147000636F00006D6D000020730000697A00004A
:101480006520000031300000343200000D0A0000F9
:101490000073000065740000207300007973000081
:1014A000206900006F660000756E00006320000078
:1014B00030780000343000000D0A00000073000096
:1014C0006574000020750000617200007420000047
:1014D00062610000756400002034000036300000B6
:1014E00038300000300D00000A0000007365000075
:1014F0007420000075610000727400002066000016
:101500006C6F000077200000310D00000A00000021
:101510007365000074200000776C0000616E0000AD
:1015200020630000686100006E6E0000656C0000C2
:101530002000000073610000766500000D0A0000C5
:101540000067000065740000207700006C610000F7
:101550006E0D00000A00000073630000616E000061
:101560000D0A000000720000656200006F6F00004D
:10157000740D00000A000000342E0000303000001E
:10158000007300006C650000657000000D0A00002B
:101590000000000012010000000200000200000034
:1015A00000080000CF10000010A2000000010000A1
:1015B00001020000000100000902000043000000D9
:1015C0000201000000C00000FA0900000400000051
:1015D00000010000020200000100000005240000DC
:1015E00000100000010400002402000002050000B9
:1015F0002406000000010000052400000100000096
:10160000010700000581000003080000000200003F
:101610000904000001000000020A000000000000B0
:10162000000700000502000002400000000000006A
:1016300007050000820200004000000000000000DA
:1016400004030000090400002A0300005600000003
:10165000650000006C0000006C00000065000000E8
:101660006D000000610000006E000000200000001E
:10167000490000006E0000007300000074000000CC
:1016800072000000750000006D00000065000000A1
:101690006E000000740000007300000048030000AA
:1016A0005700000046000000530000003200000018
:1016B0003100000030000000200000005700000052
:1016C00069000000460000006900000020000000E2
:1016D00053000000630000006F0000007000000075
:1016E0006500000020000000320000002000000023
:1016F0004300000068000000610000006E00000070
:101700006E000000650000006C000000200000007A
:1017100031000000300000004D00000053000000C8
:101720002F0000007300000000000000DC8A0000B1
:10173000208B0000248B00004E8B00000000000076
:1017400000000000900100000000000020030000E5
:1017500000000000D007000000000000A00F000003
:1017600000000000401F000000000000204E0000AC
:1017700000000000409C00000000000080380000D5
:1017800001000000400D000003000000801A00006E
:1017900006000000003500000C000000F40100000D
:1017A00000000000E803000000000000C409000081
:1017B0000000000088130000000000001027000057
:1017C00000000000A86100000000000050C30000FD
:1017D00000000000A08600000100000090D0000082
:1017E0000300000020A100000700000040420000AC
:1017F0000F00000000E10000F50500000000FA0005
:101800000080FB000182FB0000004000000242005B
:101810004422DD0005C02600050242001474A10028
:1018200025AA2600E0CF50000100320005AB2600BB
:1018300000804200040878001464A100680242009D
:101840001464A0000080FA00000006000000FA0006
:10185000C554830084C0B300E78F52000B003E00E4
:1018600005427800C5AB260015437800E04F5300D1
:1018700002003A0016C0B30003003700E14F5300E6
:1018800002003A0026C0B300864A780085A92600E7
:101890000483FB00950A130085558300A54390003F
:1018A000A6429800B5439000C6CFB30006C36300BC
:1018B000B642980085AD2600F5558B0065A9260037
:1018C00095027800E182620047A9260007003200F5
:1018D00010003700A6548300F5558300965A78000F
:1018E000F5558B00860BE8000442E900E04F5200FA
:1018F000F8FF3A000A003700A6548300F55583002C
:10190000965A7800F5558B00860BE8000442E900F2
:101910000100370047A92600E04F5200F6FF3A00C9
:101920000080FA00000006000000FA0004C8B300BE
:1019300005AD2600954F12002E003A0064A926003E
:1019400005CCB300054A780035AD260095427800F5
:10195000E2CF520008003200E3CF520015003200FF
:10196000E1CF520022003A00A4AC2800A4548B001E
:10197000240120001C00370024AD2600144278000A
:101980000482FB000402420065B928000482420080
:1019900014027800A4548B0085A9260024439000EB
:1019A000864A78008502E80034429000844A780034
:1019B0001000370025AD260026C0B300954F130058
:1019C0000B003E00954278000582FB0004024200B5
:1019D00085B928000482420014027800A4548B00C8
:1019E000144278000482FB00C4548B0001003700CD
:1019F000004AEB000080FA00000006000000FA0038
:101A000084AD2600004AEB008402E800804AEB0027
:101A100005AD260095427800FFC262008582FB007A
:101A2000E18F52000D003200E28F52000F003200B1
:101A3000E08F520028003A00B55483000570A000E2
:101A4000B5548B001404A000D5548300E18F5200DC
:101A500021003A001414A0001F003700B454830082
:101A60000470A000B4548B001B003700B4548300F2
:101A70000470A000B4548B0044AD26008042EB00FB
:101A800094CF120006003500144278006F426200C5
:101A90000482FB000402420025AA2600050037004C
:101AA000144278006F4262000482FB00040242008C
:101AB00005AB2600048242009402780044C8B300BB
:101AC0009542620084CF520003003A0015C0B30073
:101AD00084AD2600054A78000408200065A9260088
:101AE000150262000800320084AD2600A4548B0069
:101AF000B45483000400A000B4548B0025C0B3008C
:101B000084A92600054A78000080FA00000006003B
:101B10000000FA00E024AB0019003200C455830035
:101B2000144378008682FB00144390004833DD00A4
:101B30000503730005082000850F53000F003A00CD
:101B400085558300154378008683FB00154390007C
:101B50004833DD000703730045082000850F53005C
:101B600006003A0094427800C5C8B300054A7800E0
:101B7000944290008042EB0015429800E024A900B6
:101B800004082000042688000080FA0000000600F7
:101B90000000FA00889FBE0004AB26008555830034
:101BA000954278008584FB00C64CDE00E1C46400E9
:101BB0001434A200F4548300E80F52000B003A00E2
:101BC00024AD2600144278000482FB0064268800BD
:101BD00064268000E00F5200020032000401200061
:101BE0000100370044002000F4548B00D4AB2600E1
:101BF00015C0B30094CF12001F003A008455830033
:101C000085AD2600444390000044EB004542980017
:101C1000C82ADE0054439000554298000BFF07008D
:101C200084558300C5AB260026C0B300954F130032
:101C300003003A009442780045C8B3000A00370018
:101C4000E0CF540006003A009442780085CCB300FF
:101C5000054A780094429000194298001800370015
:101C60009442780085C8B300054A780094429000F9
:101C70001842980012003700A4AA26008042EB0008
:101C800094CF12000C003D00630242001442780021
:101C90008482FB00E4AA2600144278000482FB0040
:101CA0004822DD000502720001003200040001003C
:101CB000A4AA26001474A100D4AB2600004AEB00AD
:101CC0004F04BE000080FA00000006000000FA0089
:101CD0000001EB00E2548B008200780040072000F6
:101CE0009C3A0200000000008A84A9000401200040
:101CF000442488000080FA00000006000000FA007A
:101D00008A84A80004012000042688001400200012
:101D1000E4548B000001EB008000EB005007200032
:101D20009C3A0200000000000080FA00000006005B
:101D30000000FA00889FBE0024AD260015C0B30045
:101D400094CF12000F003A000482E9001442780098
:101D50007F4262000B003A00B45483000470A0007C
:101D6000B4548B0014AD260036C0B300944F13005A
:101D700002003A0014002000010037000002EB00CE
:101D8000D4548B0024AD26008042EB0094CF120087
:101D9000C1003A000482E900144278007F426200E8
:101DA000E24F5200BC003A0044AD260014437800D4
:101DB000EF426300B800320014437800EF42630042
:101DC0008582FB00E28F5200B3003C000502200038
:101DD000F6548300850F5300AF003A00B5548300DA
:101DE0000570A000B5548B008042EB0094CF120028
:101DF0000D00350014437800EF4263008582FB003C
:101E00008582420026AA26008502430095027800BA
:101E100005578B00144278006F4262000482FB0079
:101E200075AC26000C00370014437800EF426300C5
:101E30008582FB008582420006AB260085024300B6
:101E40009502780005578B00144278006F426200BB
:101E50000482FB0045AC26000482420094447800D2
:101E6000E1C2640004AE260002003A001434A1006E
:101E7000010037001434A00044AD26008042EB007E
:101E800094CF120009003500144278006F426200BE
:101E90000482FB000402420025AA260004824200BC
:101EA00006578300060A78000800370014427800BD
:101EB0006F4262000482FB000402420005AB260070
:101EC0000482420005578300050A780014AD2600FD
:101ED00036C0B300944F13001E003A00045783002D
:101EE0008042EB0094CF12000F003D0044AD26006D
:101EF00005C8B30094C2620005003A00144278009D
:101F00006F4262000482FB0075AC260004003700BB
:101F1000144278006F4262000482FB0045AC260048
:101F2000048242001414A0000457830094427800F5
:101F30000583FB0094429000C82ADD00868272006F
:101F40004508B300054A7800C82ADE00154298000B
:101F50005100370008AE26001834A2000157830054
:101F6000114378008682FB00114290000043EB0091
:101F7000914F13000C003D004822DD000502720065
:101F80000470A1000460A000844878004822DE00AC
:101F90009440980022002000500020009C3A02004B
:101FA00000000000060037004822DD000502720034
:101FB0000460A000844878004822DE009440980025
:101FC0001834A200E2C4640004003A0004578300FD
:101FD0008042EB0094CF12001E003D0044AD26006D
:101FE0000043EB00944F13000500350014427800C5
:101FF0006F4262000482FB0075AC260004003700CB
:10200000144278006F4262000482FB0045AC260057
:10201000048242001414A100015783001142780089
:102020008482FB00114290004822DD00050272000C
:10203000B5C3B300854862004822DE009440980092
:1020400022002000500020009C3A02000000000006
:1020500009003700944278000583FB009442900009
:10206000C82ADD0086827200B6C3B30006CA6200C9
:10207000C82ADE001542980044AD260014427800BC
:102080006F4262000482FB0004024200054E200001
:10209000050242001414A1004F04BE000080FA00A3
:1020A000000006000000FA00881F7800B454830086
:1020B0000470A000B4548B00E224EF00E424EF008D
:1020C00008C02600020620008000EB00080078000F
:1020D000F006020000000000CA24A80044AC26005C
:1020E000004AEB0074AC2600004AEB0054AC26001A
:1020F000004AEB0084AC2600004AEB0064AC2600EA
:10210000004AEB0094AC2600004AEB0064AB2600CA
:1021100001000900005AEB00CA24A9007002440023
:1021200084558B00C8558B00D8558B0024AD2600F4
:102130001442780001AA260084487800E04F52003B
:1021400002003A00040120000500370012002000C0
:10215000100020009C3A0200000000000402200051
:10216000F4548B004F0478000080FA000000060051
:102170000000FA0004AD260005C6B30014C26200D8
:1021800042003A0014AD2600144278000482FB009D
:1021900005002000EB0F5200E08F5A003B003E008C
:1021A0000406010018003700190037003700370017
:1021B0001700370035003700060037000B003700E6
:1021C0002D0037000D0037000A00370012003700DD
:1021D0001E003700B45483000470A000B4548B0078
:1021E00084002000F4548B0028003700CEFD070047
:1021F00026003700ABFF07002400370004AA2600A2
:10220000A4548B000A003700FCFD07001F003700B4
:10221000C7FE07001D00370044AD260014427800B9
:102220000483FB0065AB260044A92600050A430091
:10223000B454830016C0B30085A92600864A7800EE
:102240001408B300B4548B0010003700B45483005A
:102250000470A000B4548B0044AD260014427800F2
:102260000482FB0065AB26000482420025AD2600F7
:10227000154A7800050037000001EB008000EB00F4
:10228000200020009C3A0200000000000080FA00BC
:10229000000006000000FA002AC8A900F40F200080
:1022A0002426880004268800E024EF00E224EF00C2
:1022B000E424EF00DC24EF00F40920003426880039
:1022C000142688009004A80005C02600482ADE00D5
:1022D000742688000002EB006000B8006011B800AE
:1022E0004323DD0006834200009BBE000293BE0034
:1022F0000402E800EC0F5200F9FF3A00CA24A800DB
:10230000CC24EF00CAA4A900CA24A90064A926000D
:1023100014437800A4AA2600944378000402E8003D
:10232000144278000482FB00C5AA2600954278007A
:102330008582FB00C82ADD008482720080002000B4
:1023400004003700002688000043EB008643780035
:102350008002EB000426800068026200F9FF3A0068
:1023600060A9260006487800A6AA2600074B780038
:102370000603E800054B7800C82ADE000603E800E3
:10238000054B78001500200065568B0075568B00B4
:1023900094548B0074548B00E4548B0014558B00C0
:1023A00045AC2600844A780075AC2600844A780043
:1023B00094558B0024558B0055AC2600844A780038
:1023C00085AC2600844A7800A4558B0034558B00D8
:1023D00065AC2600844A780095AC2600844A7800D3
:1023E00005C1260085558B00D500200005278800F3
:1023F00005AD260025608B001660830005C02F0008
:10240000850263000530A00015608B0045082000A0
:1024100005608B0005AA2600844A7800F4548B00DE
:102420000080FA00000006000000FA00889FBE004D
:102430008A1F780000447800814478000985FB00F9
:1024400068026500030032008040EB00084078001D
:10245000EAFC0700640565000300320011C0B30008
:1024600008407800E5FC07000884FB0008044400ED
:10247000044E200008044200094C78004F05780003
:102480004F04BE000080FA00000006000000FA00C1
:102490000082FB00E0CF5000030032000402420043
:1024A00005AB2600020037000402420025AA2600E0
:1024B0000482420014027800E00F52002A00320029
:1024C000C4429000424298004811DE00D44290007D
:1024D000524298008381FB00A4429000234298005E
:1024E00034439000C5CFB300854263003542980065
:1024F000144378008682FB00144390000504B20068
:1025000014437800054A7800C82ADE00144390007E
:1025100015429800944278000583FB009442900095
:10252000C82ADD00868272008508B3001443780053
:10253000054A7800C82ADE0014439000154298002E
:102540000080FB00E0CF500003003200000040009C
:1025500005AB2600020037000000400025AA260037
:10256000050040001034A200040078000080FA004A
:10257000000006000000FA00E04F50001A003A0088
:10258000D4558300A442900085C0B3002542980032
:1025900034439000C5CFB3008542630035429800B4
:1025A00005AD26004443900045429800C82ADE004D
:1025B000544390005542980094427800C5C8B30037
:1025C000054A780094429000104298008455830098
:1025D0009442780045C8B300054A780094429000C0
:1025E000104298001B0037000182FB000080FB00B6
:1025F00000004000000242004422DD0007C0260027
:1026000087024200154378000680FB0015439000C6
:102610004833DD00000373004608B300864A7800A3
:102620004833DE00964298006802420007024200EA
:10263000944278000583FB0094429000C82ADD0094
:10264000868272004508B300054A7800C82ADE0079
:10265000154298000080FA00000006000000FA0011
:10266000889FBE008A9FBE00CAA4AB0078003200DB
:102670008082FB008582420004AB26008502420076
:1026800015027800144078000083FB00944390000A
:10269000C83BDD0006847300244390000683FB00E2
:1026A000B4439000C83BDD0086847300444390002F
:1026B0000683FB00D4439000C83BDD000685730011
:1026C000644390000683FB00F4439000C83BDD00A8
:1026D0008685730000042000010020006011B8000E
:1026E00008046000898460000A0561008B85610030
:1026F00014437800084A78004843DE009443900071
:10270000164298002443900029429800484BDE006E
:10271000B443900036429800444390004A429800E7
:102720004853DE00D4439000564298006443900022
:102730006B429800485BDE00F443900076429800BC
:10274000944078000183FB0094439000C83BDD0077
:1027500006807300244390000683FB00B44390007E
:10276000C83BDD0086807300444390000683FB0075
:10277000D4439000C83BDD000681730064439000A1
:102780000683FB00F4439000C83BDD0086817300A4
:1027900008042000090020006055B80000006C000B
:1027A00081806C0002016D0083816D00144378000C
:1027B000004A78004803DE009443900016429800D7
:1027C0002443900021429800480BDE00B44390005F
:1027D0003642980044439000424298004813DE007D
:1027E000D44390005642980064439000634298009E
:1027F000481BDE00F4439000764298001534A20096
:10280000944478008982FB00144390000504B200D0
:1028100014437800054A7800C82ADE00144390006B
:1028200015429800144578000A83FB0094429000FA
:10283000C82ADD00868272000560A2001443780079
:10284000054A7800C82ADE0014439000154298001B
:102850004F05BE004F04BE000080FA0000000600D5
:102860000000FA0064568300E00F52003B003A007B
:102870001600200066568B0075568300E08F5200CC
:1028800036003A0076568B00D4AB2600144278000E
:10289000E24F52000A003A0084558300244390001E
:1028A00025429800B4439000C6CFB30006C363002E
:1028B000364298001443780086CCB30024003700D9
:1028C000E14F520025003A00C4558300A443900014
:1028D00082C0B30022429800B4439000C1CFB3003D
:1028E00081C363003742980007AD260007007800D7
:1028F000F00FB200C441900040429800C83BDE0097
:10290000D4419000574298009441780043C8B300E6
:10291000034A7800944190001542980016568B00A7
:10292000D455830024439000224298003443900001
:102930008140630031429800444390004042980037
:1029400054439000574298001443780006C8B300DF
:10295000064A780014439000154298000080FA005F
:10296000000006000000FA00C4558300A442900055
:1029700034429000B4AA2600144278000483FB007D
:10298000C4AA2600144278000482FB004822DD001D
:10299000060272000583FB00840F5300010036001D
:1029A000844278000583FB0006025200B6AA260086
:1029B000044B78004822DE000603E800044B780050
:1029C0000002EB00640053008003E80081AD2600A4
:1029D0000C003700104178008281FB00174178001D
:1029E0000283FB004833DD000481400003037300D1
:1029F000125B7800064878004833DE00864B78008A
:102A00000402E80084CF5200F2FF3E00B4AA260080
:102A1000144278000482FB00C5AA26009542780083
:102A20008582FB00C82ADD0084827200D4558300B1
:102A30001D003200A442900085C0B30025429800DA
:102A400034439000C5CFB3008542630035429800FF
:102A500085AD26004443900045429800C82ADE0018
:102A60005443900055429800C555830006C4B300F6
:102A70009542630005003A001443780086CCB30009
:102A8000064A78001443900005003700944278000D
:102A900085C8B300054A7800944290008042EB005C
:102AA00015429800220037002443900086C0B300EE
:102AB00026429800B4439000C6CFB30006C363001B
:102AC0003642980006AD2600C44390004642980066
:102AD0004833DE00D44390005642980014437800F7
:102AE00046C8B300064A7800144390001542980087
:102AF000D4AA2600144278008482FB00E4AA2600AF
:102B0000144278000482FB004822DD0005027200B6
:102B10000100320004000100A4AA26001474A100E0
:102B200084548300E00F520001003A004CFF07007C
:102B30000080FA00000006000000FA00D4AB260076
:102B400025C0B30094CF120002003A0085FF0700B1
:102B50001A003700004AEB0015568300E08F520040
:102B600014003A00D45583002443900086C0B3007B
:102B700026429800B4439000C6CFB30006C363005A
:102B80003642980006AD2600C443900046429800A5
:102B90004833DE00D4439000564298001443780036
:102BA000C6C8B300064A7800144390001542980046
:102BB000020037000002EB0014568B000080FA0080
:102BC000000006000000FA008002EB0095548B0024
:102BD00075548B00D4AB260020C0B300944F100076
:102BE00013003A00D45583002443900086C0B300FC
:102BF00026429800B4439000C6CFB30006C36300DA
:102C00003642980086AD2600C443900046429800A4
:102C10004833DE00D44390005642980014437800B5
:102C200086CCB300064A7800144390001F0037009A
:102C300065AD2600154278000483FB000502E8001C
:102C4000144078008083FB00C83BDD00868373005E
:102C500086A92600968F5300070031009542780020
:102C60008582FB00144278000482FB004822DD00CC
:102C700005027200C4548B00F4FA070084558300E7
:102C800085AD26004443900045429800C82ADE00E6
:102C900054439000554298009442780085CCB3008C
:102CA000054A7800944290008042EB00154298005B
:102CB0000080FA00000006000000FA00CAA4A90083
:102CC0000508200064A926009482620029003A00C9
:102CD000A4AA26000043EB00944F13000B003D0014
:102CE00025C0B300D4AB2600054A78007454830095
:102CF000E00F520001003A00B2FF07000002EB00B3
:102D000074568B0064568B0041003700D455830005
:102D10002443900086C0B30026429800B44390003C
:102D2000C6CFB30006C363003642980006AD260046
:102D3000C4439000464298004833DE00D4439000DC
:102D40005642980014437800C6C8B300064A78007B
:102D50001443900015429800845583001443780072
:102D600046C8B300064A7800144390001542980004
:102D70002700370005AD260006C8B30015436300E1
:102D8000D4AB26000700320015C0B300054A780016
:102D900094548300E00F520016003A0089FF0700A8
:102DA0001400370027C0B300074A7800D4558300C9
:102DB000A443900087C0B30027429800344090009D
:102DC000C7CFB3008743600037429800C4439000E8
:102DD00045429800C82ADE00D4439000554298002E
:102DE0009442780045C8B300054A780094429000A8
:102DF000164298000002EB0074568B0064568B005C
:102E000084548300E00F520001003A0094FE070052
:102E10000080FA00000006000000FA00881F780019
:102E20000043EB00C4AB2600064A78000004EB0028
:102E300088548B0098548B0078548B0018568B0064
:102E4000D4AB2600084A780004AB26009402780030
:102E5000154078008083FB0095409000C808DD0095
:102E600087807000F0F72F0080806000F70F20004F
:102E70001541780087CA6000C808DE00154190003F
:102E8000914298001434A200940278009540780092
:102E90000181FB0095409000C808DD008280700031
:102EA000808060001541780087CA6000C808DE0095
:102EB00015419000914298001434A200D45583002B
:102EC000944278008580FB0094429000C82ADD007F
:102ED000818272000080620094427800074A60009C
:102EE0004800DE00944290001042980064A9260039
:102EF000064A7800C8548B00A4AA2600064A780027
:102F00000402E800064A78000402E800064A780055
:102F100097FC07000801780082007800300020004C
:102F20009C3A02000000000063FF07004F04780095
:102F30000080FA00000006000000FA00D5C2B300CD
:102F4000A4AC2600054A780004AC260014427800A0
:102F50000483FB00860278000520A100E08F520068
:102F60002E003A004233DE00C333DD0004C02600E9
:102F700004824300C4558B00D4558B00A7AB2600B8
:102F8000044078000034A200804B7800C7C3B3002F
:102F900014C06300E8C35300874F50001D003A007F
:102FA00000AD2600C44390008783FB00D44090000E
:102FB000C808DD008780700080834200914B780054
:102FC000C44090008180FB00D4439000C83BDD00EA
:102FD000818373008703E800C44090004742980053
:102FE000C83BDE00D4409000574298008502E800BC
:102FF000E88F5200EBFF3A004333DD0044C0260067
:103000000603420004AD2600040B780082FF07008F
:1030100005003700C8FE070003003700E88F5200A4
:1030200001003A00DAFA07000080FA00000006000A
:103030000000FA00889FBE008A9FBE008C9FBE00E1
:10304000642480006102620004003A005426880073
:1030500014268800F4548B0084003700F454830055
:10306000E00F52000C003A00542688001426880015
:10307000E4268800F40920003426880014268800FD
:1030800001003700CA04A800CA04AB00FDFF3200EB
:1030900014002000F4548B00F4548300E10F52001C
:1030A00007003A00F40F200004268800C224EF0035
:1030B000C204A800C284A80024002000F4548B009D
:1030C0008884AB00050032008A84AB000300320024
:1030D0000401200044248800FCFA07009024AB007F
:1030E00062003A00C004AB0007003200C204AB002B
:1030F0000500320067FC070044002000F4548B00F8
:103100001400200004268800C084AB0005003200B3
:10311000C284AB0003003200F8FA0700040120006B
:1031200004268800C044AB0012003200C244AB0049
:1031300005003200120020008000EB003007200064
:103140009C3A020000000000440020000426880091
:10315000A4AC260094427800E0CF52000100320077
:10316000054AE9008042EB0094CF120001003A00CA
:10317000BBFD0700C0E4AB0003003200C2E4AB00BB
:103180000100320062FA0700C024AB000B003200DD
:10319000C224AB0009003200120020008000EB00C6
:1031A000F0FF27009C3A020000000000F40F20000E
:1031B000242688002400200004268800F45483007C
:1031C000E30F520029003600C264AB002700320032
:1031D0000044EB000DAC26001CAC26008B00200048
:1031E0004AAC260079AC2600C064AB001F00320058
:1031F00044268000844E78008482FB00C42ADE00CE
:1032000005437800054E78000B268800E8426200EE
:103210000682FB00E0CF520002003A000482440024
:10322000010037000402450094437800E1C26300C6
:103230000504A2000704A10005CA7300E04F530073
:1032400002003A003CFF0700050037000001EB00D8
:1032500001AC2600200720009C3A0200000000007C
:103260000844E800E44F5400DFFF3A000AC8A90010
:103270004F06BE004F05BE004F04BE000080FA009E
:10328000000006000000FA0040A5250008440200E6
:1032900000000000E0642500EE4102000000000094
:1032A0000080FA00000006000000FA0044FB250040
:1032B00026000900001AEB0064FB2500E60420004C
:1032C0000403430005F82F00050A78006602420057
:1032D000860F5200FCFF3A0044AF82000440A10078
:1032E00044AF8A000080FA00000006000000FA00E7
:1032F00034AEA90000C429000100200008460200E5
:1033000000000000DFFF0700845E25001410A1000C
:10331000A4F52500000AEB0034AEA8000080FA00F6
:10332000000006000000FA00845E25009402780088
:103330000500A1000520A000050A78000002EB00AE
:1033400054AF8A00D4FA8A008A0302000000000009
:103350000080FA00000006000000FA001ECEA9005E
:103360001EEEA9001FEEA90030AEA90011EEA800C4
:1033700010CEA80010EEA80034AEA900F40F2C0067
:1033800095348000050262000480A0009434880017
:1033900004FC2F0095348000050262000410A00098
:1033A0009434880004F82F0025368000050262005E
:1033B0006402B30024368800F40F2800253680000C
:1033C00005026200057022000502720024368800A2
:1033D000C6FF070052012000D175290090602C0023
:1033E0002E0502000000000044AF8200D50120003D
:1033F00055AF8A005402B30044AF8A00240502008E
:1034000000000000E04F5000FCFF32003A050200CF
:10341000000000002405020000000000E04F500002
:10342000FCFF32003A05020000000000E04F5000AF
:103430000C003A001405020000000000ABFF07007A
:1034400032102000D175290000C02C002E0502008A
:103450000000000044AF82000420A10015002000FD
:1034600014003700332EAB0015003A00C4F52500D8
:103470000F000900001AEB00E1862800C0F52500C6
:103480004607020000000000C5F725000F000900F4
:10349000801AEB0051872800C0F72500460702007C
:1034A00000000000B400200084FD8A0044AF8200C8
:1034B000A502200055AF8A001402B30044AF8A0071
:1034C000C4F925001588280003000900355A780042
:1034D00004FA250007000900001AEB000080FA003A
:1034E000000006000000FA0010A78A000080FA0021
:1034F000000006000000FA0010A782000080FA0019
:10350000000006000000FA00845E250061006000F3
:10351000940278000500A100008A720059FF07009C
:103520000080FA00000006000000FA0090708000A1
:103530004F00DE000080FA00000006000000FA00E4
:103540005086820000F0A7000000EA000000E900B9
:103550004F00DE000080FA00000006000000FA00C4
:10356000881F78000002780025A78200F60F20004F
:103570000503530001047800860F54000100360053
:1035800006047800E00F540006003200804E25004B
:10359000008042000801780084007800DE06020006
:1035A00000000000444E2500140A44000482E80094
:1035B000140A44004F0478000080FA00000006005E
:1035C0000000FA00889FBE008A1F7800000478007F
:1035D00038029000D8029000850F52002500360076
:1035E000F2825200050252003404980068039000F1
:1035F000850243006504980025412000850F520094
:103600000200360055049800010037005404980069
:10361000D8049000F28454007800440098007800A8
:1036200009017800DE06020000000000188C44004A
:10363000D800900068855000E6844000890444006A
:103640008180E90068004400244602000000000078
:103650000A054400604D9800A4C0B300944498004B
:1036600014002000140498005802900024049800CC
:10367000030037000002EB003404980014049800A3
:103680004F0578004F04BE000080FA0000000600DD
:103690000000FA00889FBE008A9FBE0000047800E8
:1036A00025C0B300040D2500054A78000402E80097
:1036B00098429000054A78001802900025412000A9
:1036C000850F52000200360095868A0001003700FF
:1036D00094868A0028029000A4868A00380290000E
:1036E000C8029000B4868A00C5868A0058029000FD
:1036F000E8029000D4868A00E5868A00F8029000ED
:10370000F5868A00F005440099868200728554008F
:103710000A0178008B007800000E2500DE0602000A
:1037200000000000840C25000A8A4500E88554004A
:10373000660542000A8544008980E900680042006D
:103740002446020000000000640D25008B054200A5
:10375000804D7800A4C0B300144598001804900070
:1037600078868A009486820064868A00140020008D
:1037700054868A004F05BE004F04BE000080FA0048
:10378000000006000000FA00881F7800000478009E
:10379000040037000000FB00D0020200000000001F
:1037A000005C780018407800E04F5000F9FF3A00C4
:1037B0004F0478000080FA00000006000000FA00C4
:1037C000889FBE008A1F78000004780059AF8200ED
:1037D000C4C3B300984F12000D003A0044AF8200FA
:1037E0000430A00044AF8A0014022000848F5400EB
:1037F000B0003A0061882800080078009A070200AB
:10380000000000008000E80000FA25004B003700AF
:10381000E28F540011003200FE8F54000F0032007E
:1038200094022000848F54000C0032000482E800CF
:10383000848F54000900320067024200848F5400D4
:10384000060032006C024200848F540003003200F4
:103850000482E800848F540011003A00845E250041
:1038600014027800640262002189280007003200F7
:103870008188280008007800680702000000000026
:10388000E00F50000F003A00D188280008007800AF
:103890006807020000000000E00F500009003A0035
:1038A00054022000848F540009003A00A1892800A6
:1038B000080078006807020000000000E00F5000D8
:1038C0003A00320044AF82000410A00043003700E9
:1038D00014022000848F540034003A00D1032000E9
:1038E000080078001C07020000000000E00F5000F4
:1038F00070003200318A2800080078009A07020020
:103900000000000000047800080078009DFF070018
:10391000518A2800080078003407020000000000E7
:10392000E00F500008003A00A18A28009A07020020
:103930000000000080007800C0F525004607020066
:10394000000000005B003700C18A280008007800F2
:103950003407020000000000E00F500007003A00AA
:10396000A18A28009A070200000000002A0602002F
:103970000000000080FD8A004E003700118B2800F7
:10398000080078003407020000000000E00F50003B
:1039900048003A00A18A28009A07020000000000AF
:1039A00080007800C0F72500E4FF37002902B1004D
:1039B000E18F54003F003E00C18B280008007800D2
:1039C000680702000000000000057800E00F5500C5
:1039D0000400320044AF82000440A00044AF8A00DB
:1039E00034003700C1022000080078001C070200E4
:1039F00000000000E00F50002E003200018C280073
:103A0000080078009A07020000000000018C2800DE
:103A10000A0078009A070200000000002A0602004F
:103A2000000000000004E900E644B800E4F22000D1
:103A3000840244006908250085824400150078004E
:103A4000E00F50000F003200018C28000A007800BF
:103A50009A070200000000002A0602000000000091
:103A600004F320008402440085824400950F100076
:103A700010003D000884440004024400000A78005D
:103A80000C003700088444000402440015002000A4
:103A9000050A7800018C28009A0702000000000047
:103AA0002A0602000000000009F320000904440077
:103AB000000C78004F0578004F04BE000080FA002B
:103AC000000006000000FA00889FBE00790825006B
:103AD0000004EB00040037003A050200000000007B
:103AE000806C78000804E800240502000000000053
:103AF000E04F5000F8FF3A002222AB0001003200F4
:103B00002222A900845E250014027800610262006E
:103B100023003200E00F540023003A0040A52500A6
:103B20001244020000000000E00F50004B003A0079
:103B3000D4FA8200E50F52004800340088082500BE
:103B4000A4C0B300044C78008080EB00D0FB2F00B1
:103B5000E20402000000000040FF2F003E040200CB
:103B60000000000012C0B3008800780040A52500C6
:103B7000244402000000000002003700A0E52500F8
:103B80000EFF0700A1E5250040A5250030440200F6
:103B900000000000E00F5000F8FF3A002F0037004F
:103BA000E00F54002D0032008800780080082500C6
:103BB000DA3F020000000000845E25001402780055
:103BC00061026200160032008080EB00D0FB2F0003
:103BD000E20402000000000040FF2F003E0402004B
:103BE00000000000084178008108250040A525005C
:103BF000244402000000000002003700A0E5250078
:103C0000EEFE0700A1E5250040A525003044020096
:103C100000000000E00F5000F8FF3A000F003700EE
:103C20000841780081082500E0642500F841020081
:103C3000000000000300370020042600D23F0200ED
:103C40000000000021042600E06425000442020078
:103C500000000000E00F5000F7FF3A004F04BE00E4
:103C60000080FA00000006000000FA000003EB00EC
:103C7000D6FA8A00855E2500150278000430A1007E
:103C800066AF8A000450A100840A780080007800A2
:103C9000668042004607020000000000A45E250086
:103CA000140AE8000080FA00000006000000FA0094
:103CB00040AF82000000D100610060000080FA0087
:103CC000000006000000FA0040AF82004300DE0062
:103CD000610060000080FA00000006000000FA00A9
:103CE00040AF82004400DE00610060000080FA0006
:103CF000000006000000FA000608AB0013003200C6
:103D00008080EB00D0FB2F00E204020000000000E6
:103D100040FF2F003E04020000000000A4F5250033
:103D20001402E800D4FA8A00F40F520007003400AD
:103D3000A45E2500F5FD2F0014824200E80F52001A
:103D400002003E0077FD070068FD07000080FA00D2
:103D5000000006000000FA0086FB2500060278003D
:103D60008002EB00000AEB00E28F520005003400F5
:103D7000E4B397000708B000C3BBDE00070A780071
:103D800002003700E28F520005003A0094BB970012
:103D90000708B000C2BBDE00148A430002003700EF
:103DA000E08F520004003200C4BB97000708B00047
:103DB0008783D100148A4300F4B8970094804000B0
:103DC0000108B000010A7800EC8F520012003200A6
:103DD000240090000008B0000080D10001004000E5
:103DE000000A7800EA8F52000B003C00D4039000D8
:103DF0000708B000C2BBDE0087034000070A780056
:103E0000EA8F520004003200040890000008B0005D
:103E10004280DE00008A43008502E800660242001C
:103E2000ED8F5200CFFF3A00853E20000000EB00EE
:103E30000002780096037800858F530002003D0051
:103E400087027800040078000402E800660343005B
:103E5000ED0F5200F7FF3A000000E8000080FA0082
:103E6000000006000000FA0004FB25001402E9002F
:103E7000E622B800E5F220000502420065082500B0
:103E800004824200100020008002EB00948F120098
:103E90001C00320046FB25008503780005027800EF
:103EA00096007800E00F520004003A00E08F5000C6
:103EB00002003A000002780007003700E08F50004F
:103EC0000500320096009000858F500002003D00F2
:103ED00080037800810278000000E8006603430058
:103EE000EE0F5000EEFF3A00E00F520003003200E8
:103EF00084FD8A000000EB000200370087FD8A0085
:103F0000040078000080FA00000006000000FA00BB
:103F1000889FBE008A9FBE008C9FBE0054AF820067
:103F20000500200061025200E0825A0026042000B1
:103F3000860F5200E08F5A00C7023E0004060100BF
:103F40004200370045003700510037005F0037005E
:103F500063003700680037006D00370085003700C8
:103F60008C003700A4003700BC003700C1003700C8
:103F7000C6003700CB003700D0003700D50037002F
:103F8000DA003700DF003700E4003700E9003700CF
:103F9000EE003700F3003700F8003700FD0037006F
:103FA000020137001A0137001F01370034013700C2
:103FB000450137004E0137005A01370068013700CC
:103FC0006C01370071013700770137008F0137002E
:103FD0009401370098013700AB013700B00137007A
:103FE000B9013700BD013700C6013700D2013700E3
:103FF000E0013700E2013700E4013700E601370055
:10400000E8013700EA013700EB013700ED01370026
:10401000FD01370017023700190237002F02370061
:104020003102370072023700770237003102370061
:10403000360237003F02370043023700460237009E
:10404000520237006002370064023700A7FC070005
:10405000A45E2500140AE8007F02370013FF070062
:10406000E00F50007C0232008080EB00D0FB2F007C
:10407000E20402000000000040FF2F003E040200A6
:1040800000000000A45E2500140AE8007202370058
:104090000608AB0070023200208C2800F2FE0700F8
:1040A00044AF82000410A10044AF8A008080EB007E
:1040B000D0FB2F00E20402000000000040FF2F00B0
:1040C0003E04020000000000630237000608AB0057
:1040D00061023200608C2800E3FE07005E023700B8
:1040E000F8FE0700E00F50005B023200608D2800F0
:1040F000DDFE070058023700F2FE0700E00F500017
:1041000055023200708E2800D7FE07005202370099
:10411000ECFE0700E00F50004F023200C4F525000E
:104120000F000900001AEB00E1862800C0F5250009
:104130004607020000000000918F280020002600A2
:104140004607020000000000C1F5250020002600FF
:1041500002070200000000008190280020002600D5
:10416000020702000000000020002600BEFE07003B
:1041700039023700D3FE0700E00F5000360232004C
:1041800024FB2500000AEB00B0902800B6FE0700D3
:1041900031023700CBFE0700E00F50002E02320044
:1041A000C6F725000F000900001BEB00518728000F
:1041B000C0F725004607020000000000D19128004A
:1041C000200026004607020000000000C1F725007D
:1041D0002000260002070200000000008190280055
:1041E0002000260002070200000000002000260038
:1041F0009DFE070018023700B2FE0700E00F5000D6
:1042000015023200C4F525000F000900001AEB006A
:10421000E1862800C0F525004607020000000000E6
:10422000E19228002000260046070200000000005E
:10423000C1F5250020002600020702000000000052
:1042400081902800200026000207020000000000E4
:104250002000260084FE0700FF01370099FE0700BA
:10426000E00F5000FC013200F09328007EFE0700B2
:10427000F901370093FE0700E00F5000F60132000D
:10428000F094280078FE0700F30137008DFE070048
:10429000E00F5000F0013200C096280072FE0700C7
:1042A000ED01370087FE0700E00F5000EA01320001
:1042B000B09828006CFE0700E701370081FE070078
:1042C000E00F5000E4013200809A280066FE0700EB
:1042D000E10137007BFE0700E00F5000DE013200F5
:1042E000009C280060FE0700DB01370075FE070018
:1042F000E00F5000D8013200509D28005AFE070000
:10430000D50137006FFE0700E00F5000D2013200E8
:10431000909E280054FE0700CF01370069FE070079
:10432000E00F5000CC01320070A028004EFE0700C4
:10433000C901370063FE0700E00F5000C6013200DC
:1043400020A2280048FE0700C30137005DFE0700D9
:10435000E00F5000C001320040A3280042FE0700D9
:10436000BD01370057FE0700E00F5000BA013200D0
:1043700090A428003CFE0700B701370051FE07005B
:10438000E00F5000B4013200F0A5280036FE07000F
:10439000B10137004BFE0700E00F5000AE013200C4
:1043A00060A7280030FE0700AB01370045FE07007C
:1043B000E00F5000A8013200B900200089FD8A00FA
:1043C00081A8280020002600460702000000000007
:1043D00020002600560702000000000028002600EA
:1043E00008004000A200200089007800A406020016
:1043F00000000000819028000800780002070200F9
:10440000000000000800780017FE07009201370046
:104410002CFE0700E00F50008F013200A0A92800F9
:1044200011FE07008C01370026FE0700E00F500048
:104430008901320044AF82000410A10044AF8A0019
:1044400034AEA9008FFB0700A4F52500000AEB009D
:1044500014050200000000008080EB00D0FB2F005C
:10446000E20402000000000040FF2F003E040200B2
:1044700000000000A45E2500140AE8007601370061
:104480000608AB007401320052012000D1752900EA
:1044900090602C002E0502000000000034AEA80041
:1044A0008080EB00D0FB2F00E2040200000000003F
:1044B00040FF2F003E04020000000000E401200045
:1044C00054AF8A006401370004002200A5002100D7
:1044D000150262000200320092FB07005E01370005
:1044E00082FB0700A45E2500140AE8005A01370089
:1044F000EEFD0700E00F5000570132008080EB0016
:10450000D0FB2F00E20402000000000040FF2F005B
:104510003E04020000000000A45E2500140AE8002A
:104520004D0137000608AB004B013200208C2800FB
:10453000CDFD070044AF82000410A10044AF8A0003
:104540008080EB00D0FB2F00E2040200000000009E
:1045500040FF2F003E040200000000003E01370033
:104560000608AB003C01320010AA2800BEFD07007F
:1045700039013700D3FD0700E00F5000360132004B
:10458000C0AA2800B8FD070033013700D3FD07009B
:10459000E00F50003001320043FB0700C0AA2800A2
:1045A000B1FD07002C013700CCFD0700E00F5000E3
:1045B00029013200E7FD070004FB2500940F50009D
:1045C00003003A00A45E2500140AE8000600370044
:1045D00080FD8A0044AF82000430A00044AF8A000E
:1045E0007403200054AF8A001EFE0700E00F500045
:1045F00003003A0044AF82000430A00044AF8A00B8
:104600007403200054AF8A001301370044AF8200C6
:104610000410A10044AF8A0030AB280092FD0700CF
:104620000D013700A1FD0700E00F50000A01320024
:104630003CFB07000801370081A828002000260065
:104640004607020000000000200026005607020076
:10465000000000002800260008004000A200200002
:1046600081FD8200A4060200000000008190280065
:10467000080078000207020000000000080078002F
:1046800079FD0700F40037008EFD0700E00F5000B1
:10469000F1003200A0A9280073FD0700EE003700EA
:1046A00088FD0700E00F5000EB00320044AF8200AD
:1046B0000410A10044AF8A000CFB0700A45E250093
:1046C000140AE800E400370078FD0700E00F50000E
:1046D000E100320013FB0700DF0037000400220076
:1046E000A500210015026200020032000DFB070048
:1046F000D9003700FDFA0700A45E2500140AE8007F
:10470000D500370069FD0700E00F5000D2003200ED
:104710008080EB00D0FB2F00E204020000000000CC
:1047200040FF2F003E04020000000000A45E2500B0
:10473000140AE800C80037000608AB00C6003200C3
:10474000208C280048FD070044AF82000410A1001F
:1047500044AF8A008080EB00D0FB2F00E20402000F
:104760000000000040FF2F003E0402000000000097
:10477000B9003700E402200054AF8A00B6003700C9
:10478000F402200054AF8A00B30037000403200075
:1047900054AF8A00B00037001403200054AF8A00E1
:1047A000AD0037002403200054AF8A00AA00370070
:1047B0003403200054AF8A00A45E2500140AE800E8
:1047C000A50037000608AB00A3003200918F280037
:1047D000200026004607020000000000C1F5250069
:1047E000200026000207020000000000819028003F
:1047F0002000260002070200000000002000260022
:1048000019FD070094003700C1AB280000FA25000D
:104810003407020000000000E00F500003003A00DF
:104820006403200054AF8A008B00370025FD070089
:10483000E00F500088003200E1922800200026009E
:104840004607020000000000C1F5250020002600F8
:1048500002070200000000008190280020002600CE
:10486000020702000000000020002600FEFC0700F6
:10487000790037008403200054AF8A0076003700A7
:1048800010FD0700E00F50007300320081A82800DF
:10489000200026004607020000000000200026003D
:1048A0005607020000000000280026000800400013
:1048B000A200200081FD8200A4060200000000008A
:1048C0008190280008007800020702000000000024
:1048D00008007800E4FC07005F0037009403200024
:1048E00054AF8A005C003700A403200054AF8A0054
:1048F00059003700F3FC0700E00F5000560032006B
:10490000A0A92800D8FC070053003700EDFC0700E1
:10491000E00F50005000320044AF82000410A100AC
:1049200044AF8A0071FA0700A45E2500140AE8006B
:1049300049003700DDFC0700E00F50004600320060
:1049400078FA07004400370068FA0700A45E2500E3
:10495000140AE80040003700D4FC0700E00F5000C4
:104960003D0032008080EB00D0FB2F00E20402000B
:104970000000000040FF2F003E0402000000000085
:10498000A45E2500140AE800330037000608AB00D7
:1049900031003200208C2800B3FC070044AF8200B5
:1049A0000410A10044AF8A008080EB00D0FB2F00F0
:1049B000E20402000000000040FF2F003E0402005D
:1049C00000000000240037000608AB00220032007F
:1049D00010AC2800A4FC07001F0037000608AB003D
:1049E0001D003200E6420200000000001A003700FD
:1049F000B4FC0700E00F500017003200F0942800CC
:104A000099FC070014003700AEFC0700E00F5000CF
:104A100011003200B098280093FC07000E00370008
:104A200069AF82008B8444008A8444001900FB0033
:104A30005005020000000000180CE8001942900028
:104A4000E04F520009003A0044AF82000450A00039
:104A500044AF8A00050037008D5E25000C0220005F
:104A6000648446008B5620006A0825000605020073
:104A700000000000E04F500002003A001D026600F6
:104A8000E7FF32009BFC07004F06BE004F05BE004B
:104A90004F04BE000080FA00000006000000FA008B
:104AA000889FBE00845E25001402780061026200C7
:104AB00006003200A40C2500000AEB00640242004C
:104AC000000AEB0011FD07000D0037009BFA0700FC
:104AD000E00F50000A00320054AF8200A50220000F
:104AE000850F520003003200F5824200850F52000C
:104AF00003003A0044AF82000400A00044AF8A00E3
:104B000014A78200E00F520018003200694E250001
:104B10000982E9001402780019045200244620009A
:104B2000040444006408250004044400080037001D
:104B3000384278000480FB005005020000000000AD
:104B40001902E90034A78A0001003A0024A78A006C
:104B50000605020000000000E04F500003003A008C
:104B600034A78200E00F5200F1FF3A000400280051
:104B70009570800005026200E00F520003003A00C9
:104B800054868A0074868A003700370006050200C2
:104B900000000000E04F500033003A0054868200CD
:104BA0000500200061025200E0825A00E30F52002B
:104BB000E08F5A002C003E0004060100030037007D
:104BC000180037001F00370025003700C80C2500EB
:104BD0006602440014027800980452006402440003
:104BE0008484440005003700394278000480FB00CB
:104BF0005005020000000000180CE9000605020044
:104C00000000000064868200E04F500002003A007D
:104C1000E00F5200F4FF3A00E00F520012003A0099
:104C20000C0037000100280050F92F00EE040200AC
:104C30000000000040FF2F006004020000000000A0
:104C4000040037000668AB0007003200960302003C
:104C500000000000A40C2500140AE8000200370040
:104C6000800C250056FA07004F04BE000080FA00B1
:104C7000000006000000FA0092FB070087FF070013
:104C80000080FA00000006000000FA00A4002100E5
:104C9000610060004B00DD009402780005B0A100C7
:104CA000008A72000080FA00000006000000FA008E
:104CB00095708000A4002100C42ADE000510B20017
:104CC000140378000680A10005037300060A78002B
:104CD00095708000C42ADE000520B2000690A10075
:104CE00085027300050A7800967080004E33DE005E
:104CF000610363004A33DD0005A0A100068A72004B
:104D00000080FA00000006000000FA00889FBE0044
:104D100044002100004A78002982800024042100F8
:104D2000148414000080FB00010020006141B900E0
:104D30001E06020000000000E00F5000E08F580047
:104D400002003D00F007B0000180B000C78BDE001C
:104D5000490ADD004703DE0006037200240020003C
:104D6000110009000404D800000278008484540073
:104D70000680440034002100144278000482FB00C5
:104D800004024200E50021000482420014004000B9
:104D9000304888004F04BE000080FA000000060082
:104DA0000000FA0034002100004A78000080FB0077
:104DB00001002000EC0F5000E08F58006A003E0018
:104DC000000601000C003700160037001A003700FB
:104DD0001E003700260037002A0037003000370059
:104DE000360037003A0037004000370047003700F0
:104DF0004E0037005400370021AEA800342EA90021
:104E0000344EA900346EA800316EA800300EA80000
:104E1000354EA90025CEA90004002400344888009E
:104E200051003700346EA90021AEA800342EA9002D
:104E3000344EA80017003700346EA90021AEA80038
:104E4000342EA900344EA80019003700346EA90092
:104E500021AEA800342EA900344EA800316EA9005E
:104E6000356EA900354EA80025CEA9003E003700BA
:104E7000346EA90021AEA800342EA900344EA8003B
:104E800017003700346EA90021AEA800342EA80008
:104E9000344EA900316EA900356EA9001900370003
:104EA000346EA90021AEA800342EA800344EA9000B
:104EB000316EA900356EA9001A003700346EA900C2
:104EC00021AEA800342EA800344EA900E3FF37001D
:104ED000346EA90021AEA800342EA800344EA900DB
:104EE000316EA900356EA9001D003700346EA9008F
:104EF00021AEA90025AEA900342EA900344EA90088
:104F0000316EA800354EA900D7FF3700346EA900D6
:104F100021AEA90025AEA900342EA900344EA90067
:104F2000316EA800354EA9000E003700346EA9007E
:104F300021AEA90025AEA900342EA900344EA90047
:104F4000316EA800C7FF3700346EA90021AEA9005A
:104F500025AEA900342EA900344EA900316EA80058
:104F6000354EA80025CEA80044002100144078004A
:104F700065FF07002400210025C0B30094CF120074
:104F800005003A0021AEA800342EA900344EA90035
:104F9000346EA800316EA8000080FA000000060000
:104FA0000000FA0024002100004A7800E14F500080
:104FB0000600320003003900E24F50000E003A00B4
:104FC00008003700300EA80002003700300EA9009C
:104FD000340EA900340021001440780070FF07004F
:104FE0000500370021AEA800342EA900344EA900D8
:104FF000346EA800316EA8000080FA0000000600A0
:105000000000FA00889FBE0074002100004A78006A
:105010004982800064042100148414000080FB0095
:10502000010020006141B9001E06020000000000DE
:10503000E00F5000E08F580002003D00F007B00084
:105040000180B000C78BDE00490ADD004703DE00A7
:105050000603720024002000110009000404D80097
:10506000000278008484540006804400640021001B
:10507000144278000482FB006D02420004024200E8
:10508000E5002100048242001400400080488800AE
:105090004F04BE000080FA00000006000000FA0085
:1050A00064002100004A78000080FB00010020001D
:1050B000EC0F5000E08F58006A003E00000601002F
:1050C0000C003700160037001A0037001E003700AA
:1050D000260037002A00370030003700360037003E
:1050E0003A00370040003700470037004E003700D5
:1050F00054003700110EA800144EA900148EA90008
:10510000152EA800116EA800114EA800146EA9005B
:1051100034CEA900040024008448880051003700E0
:10512000152EA900110EA800144EA900148EA80077
:1051300017003700152EA900110EA800144EA90063
:10514000148EA80019003700152EA900110EA80012
:10515000144EA900148EA800116EA900156EA900A6
:10516000146EA80034CEA9003E003700152EA90009
:10517000110EA800144EA900148EA80017003700C5
:10518000152EA900110EA800144EA800148EA90017
:10519000116EA900156EA90019003700152EA9007F
:1051A000110EA800144EA800148EA900116EA900BB
:1051B000156EA9001A003700152EA900110EA800BF
:1051C000144EA800148EA900E3FF3700152EA90085
:1051D000110EA800144EA800148EA900116EA9008B
:1051E000156EA9001D003700152EA900110EA9008B
:1051F000150EA900144EA900148EA900116EA80066
:10520000146EA900D7FF3700152EA900110EA900B2
:10521000150EA900144EA900148EA900116EA80045
:10522000146EA9000E003700152EA900110EA9005A
:10523000150EA900144EA900148EA900116EA80025
:10524000C7FF3700152EA900110EA900150EA900E1
:10525000144EA900148EA900116EA800146EA800A7
:1052600034CEA800740021001440780064FF0700C9
:105270005400210025C0B30094CF120005003A006D
:10528000110EA800144EA900148EA900152EA80016
:10529000116EA8000080FA00000006000000FA006D
:1052A00054002100004A7800E14F5000060032000F
:1052B00003003900E24F50000E003A0008003700AA
:1052C000114EA80002003700114EA900154EA9008A
:1052D000640021001440780070FF070005003700CB
:1052E000110EA800144EA900148EA900152EA800B6
:1052F000116EA8000080FA00000006000000FA000D
:10530000889FBE0094002100004A780069828000D6
:10531000A4042100148454000080FB00010020003C
:105320006141B9001E06020000000000E00F5000BD
:10533000E08F580002003D00F007B0000180B0008F
:10534000C78BDE00490ADD004703DE00060372005A
:1053500024002000110009000404D8000002780095
:105360008904420006805400D04888004F04BE00E3
:105370000080FA00000006000200FA00840021000C
:10538000004A7800000F78006E0302000000000061
:105390001E0078000080FB0001002000F20F50008A
:1053A000E08F58004F003E00000601001200370059
:1053B0001400370016003700180037001D003700B2
:1053C000190037001B0037001D0037001F00370091
:1053D0002100370023003700250037002700370061
:1053E000290037002B0037002D0037002F00370031
:1053F0003100370033003700320020000300200066
:105400003200370072002000030020002F00370018
:1054100032012000030020002C003700720220001F
:105420000300200029003700720C20000300200038
:1054300026003700F204200003002000230037007C
:10544000F20920000300200020003700F21820009D
:10545000030020001D003700F2312000030020006F
:105460001A003700F2632000030020001700370005
:10547000F2F920000300200014003700F2F32100AD
:105480000300200011003700F2E723000300200092
:105490000E003700F2C32900030020000B00370084
:1054A000F28723001300200008003700F20F2700C6
:1054B0002300200005003700F2A721006300200030
:1054C00002003700F24F2300C3002000D0F827006D
:1054D000C20402000000000060FF2F00F003020081
:1054E000000000000080FA00000006000000FA0042
:1054F000A4002100004A78001402780064026200CF
:1055000003003200C228A900C248A90002003700E7
:10551000C228A800C248A8000080FA0000000600C7
:105520000000FA00889FBE008A9FBE008C1F780092
:105530002E45020000000000310EA900350EA80023
:10554000312EA8003B2EA8003D2EA9001F8EA900D9
:10555000118EA8001B8EA8001FAEA90011AEA800D6
:105560001BAEA8001FCEA90011CEA8001BCEA8001C
:10557000300EA800316EA800306EA90021AEA80040
:105580002FAEA900302EA900304EA900314EA9003F
:1055900021CEA9002FCEA90021AEA800342EA9004B
:1055A000344EA900346EA800316EA800300EA80059
:1055B000354EA90025CEA9000900240039488800ED
:1055C000114EA8001F4EA900116EA8001F6EA90061
:1055D000112EA9001F2EA900110EA8001F0EA90050
:1055E000104EA9001E4EA900108EA9001E8EA90003
:1055F000106EA9001E6EA90030CEA9003ECEA900F3
:10560000110EA800144EA900148EA900152EA80092
:10561000116EA800114EA800146EA90034CEA90086
:10562000894888006F0EA9006EEEA9004E0EA900F1
:105630004E2EA9004E4EA9004E6EA9004E8EA90016
:105640004EAEA9004ECEA9004EEEA9006ECEA90026
:10565000610EA90060EEA900308EA900400EA800DE
:10566000402EA800404EA800406EA800408EA80022
:1056700040AEA80040CEA80040EEA80060CEA80032
:10568000650EA90064EEA900348EA900650EA8007D
:1056900064EEA900FC0F2C0030348000000266008C
:1056A00004C0A0003434880070FF2F00DE02020026
:1056B000000000000BC023000B4888000004EB0032
:1056C0001848880000C021000029B7003948880028
:1056D0000A0028002A488800044880000400A1002D
:1056E0006400B30004488800F00120000229B700DC
:1056F000743480000406660004102100040676005D
:105700007C34880070FF2F000603020000000000B8
:105710005B4888006848880000C021000A29B7005B
:10572000894888007A488800544880000400A10015
:105730006400B30054488800F00120000C29B70031
:1057400004FC2F0075348000050262002401B300C0
:105750007434880070FF2F002E0302000000000048
:10576000AB488800B848880000C021001429B70061
:10577000D9488800CA488800A44880000400A100D5
:105780006400B300A4488800F00120001629B70087
:1057900001E6A90001A6A800F07F2E000026B600B1
:1057A0000146A9000126A9000106A900F0F32F0077
:1057B0000026B600F0FF29000226B6001430800053
:1057C00004B0A00004C0A100143088000346A90062
:1057D000143080000480A1000490A00014308800E0
:1057E00030FC2F000226B600683088002830880080
:1057F000F0F82F005628B60025A8A90001E6A80059
:1058000011EEA8002028A90024A8A90080FF2F00DD
:105810004021B6004821B6005021B6005821B600FC
:1058200010AEA8001EAEA900612EA8006F2EA90020
:1058300009F82F0009007800AE26B600B026B600A1
:10584000F40F280005358000050262000550220093
:105850000502720004358800103580000082640063
:105860009407B300143588002288A90023A8A90052
:10587000544280000400A0000410A1000420A000F5
:1058800054428800744280000440A0000450A100EB
:105890000460A00074428800C228A800C248A80082
:1058A000650EA80064EEA800EE30020000000000C3
:1058B00008407800BAFD07000840780038FD07006E
:1058C0000940780010FD07000840780073FE0700CB
:1058D00008407800F1FD070009407800C8FD070086
:1058E00020C0B300A4FE07000940780083FE070033
:1058F00008407800FDFE0700A40021009402780013
:105900000500A0000510A100050A78006A2D02001C
:10591000000000000880880008007800721A020069
:1059200000000000080078000E38020000000000AF
:105930004F0678004F05BE004F04BE000080FA00FD
:10594000000006000000FA006E03020000000000E4
:1059500062030200000000002288A90023A8A90019
:1059600056030200000000000100280050FB270041
:10597000A80402000000000040FF2F00A203020064
:10598000000000000080FA00000006000000FA009D
:10599000ECFF07002028A90024A8A90080FF2F0001
:1059A0004021B6004821B6005021B6005821B6006B
:1059B00010AEA8001EAEA900612EA8006F2EA9008F
:1059C00000F82F00AE26B600B026B600F40F28006F
:1059D00005358000050262000550220005027200B4
:1059E0000435880015358000050260009407B30077
:1059F000143588002288A90023A8A90054428000F9
:105A00000400A0000410A1000420A000544288005B
:105A1000744280000440A0000450A1000460A00073
:105A200074428800C228A800C248A80054808000A0
:105A3000E402620002003200C228A900C248A900A4
:105A40008002EB0005848A008500210095427800E1
:105A50000583FB00D6838900E5CF520002003E009B
:105A6000C507230001003700E507230025848A00CD
:105A7000F002620015003A0063026200E10F52007A
:105A800007003A008080EB00D0FA2F00B604020035
:105A900000000000D0FF2F00CA0302000000000039
:105AA000A4002100140278006802620004003A0099
:105AB00023A8A9000288A9002288A80003003700B3
:105AC0002288A90003A8A90023A8A8000080FA0042
:105AD000000006000000FA0006F82F00C4072300AB
:105AE00003200900065A78008400210055C0B30045
:105AF00094CF120002003E00C407230001003700CB
:105B0000E407230024848A000080FA0000000600D5
:105B10000000FA00881F7800048080000500200043
:105B2000EA0F5200E08F5A006D003E0004060100AB
:105B30000A0037000B0037000D0037000F00370058
:105B40001300370015003700170037003200370008
:105B500033003700370037003D00370079FF07007A
:105B60005F003700EC340200000000005C003700EA
:105B700090350200000000005900370014848200B4
:105B8000E00F52005600320044002000530037005E
:105B90000637020000000000510037007BFF0700BD
:105BA000640020004D0037002288AB000E003A0050
:105BB000040022001541800005026200E00F52003F
:105BC00009003A002108AB0007003A000400210058
:105BD0001541800005026200E00F520002003A0009
:105BE000740020003D00370084002100C5C0B300D0
:105BF00094CF12003A00360000E8AB0038003200C3
:105C000000E8A90001848200C0052100D240020002
:105C100000000000320037004AFF0700090037008B
:105C200001002100C0052100D24002000000000058
:105C3000040037009041020000000000E00F500017
:105C400027003200048080000402E80023003700AF
:105C5000D4828000E00F520002003200683402005B
:105C6000000000001E38020000000000E00F50009D
